:0808690002100000020800006B
:0D08F0007580FF7590FF75A0FF75B0FF22A9
:100402001208F01208CD8005E51BB455051209113A
:1004120080F612070612065EAC1EAD1FE41202A69B
:100422007B4A7A8C79E778411200FBE4FBFA798007
:100432007845120204A804A905AA06AB077FE57E47
:10044200D07DBF7C411200068F0F8E0E8D0D8C0C5D
:10045200E4FFFE7D207C41AB0FAA0EA90DA80C1271
:1004620000FB1202DF8E108F11E521AE207802CE42
:10047200C313CE13D8F9FDAC06E41202A68F0F8E79
:100482000E8D0D8C0CC3E5089404500F1202DFC3CD
:10049200E49FF50974049EF5088005E4F508F50962
:0904A2001209111206BB02041735
:10088300543A30302E3027430050483A30302E301F
:0A089300205444533A303030300056
:0F073E008F807F027E0012074DD2A77F027E00C0
:10074D00D3EF9400EE940040147D717C00ED1D708C
:0D075D00011CED4C70F7EF1F70E61E80E3ED
:01076A00226C
:08091A00C2A612073EC2A7228B
:08092200D2A612073EC2A72273
:0A08FD00AB0512091AAF030209222D
:04089D008F2BA905EF
:1008A1007F017E00AD0119ED6009AD2B7C001203C3
:0308B1008D80F146
:0108B4002221
:080601008F268C278D288B2920
:10060900E4F52AFAEAC39529504AC3E5299A14FD63
:100619007F0A12089DAC27AD28CFCDCFCECCCE1204
:10062900039F7C007D0A12039FA905E52A7017E53F
:100639002914FFEAC39F500EE97008E5262AFF7DB9
:1006490030800B752A01E5262AFFE92430FD1208BE
:04065900FD0A80B066
:01065D00227A
:080795008F268B278A28892991
:10079D00E4F52AAB27AA28A929852A827583001298
:1007AD000360FD600BAF261208FD0526052A80E3C8
:0107BD002219
:10070600C2A77F3812091A7F0C12091A7F0612092E
:100716001A7F0112091A7F8012091A7BFF7A08795B
:10072600837F801207957DDF7F861208FD7BFF7A27
:0807360008798C7FC0020795D1
:1006BB00E51BFD7C007B027F82120601E514FD7CAD
:1006CB00007B017F85120601AE10AF117C007D0A05
:1006DB0012039FAC06AD077B027FC3120601AE105F
:1006EB00AF117C007D0A12039F7B017FC6120601AE
:0B06FB007B04AD09AC087FCC020601B7
:1008DF0000010102020303040405050607080809C5
:0108EF0009FF
:0308710001151E50
:0A090700EFD3940040031F80F72295
:1008B500D2A07F01120907C2A07F32120907D2A078
:0808C50020A0FD7F2D020907B0
:0207E700AE075B
:1007E9007D08D2A00000C2A00000000000EE139214
:1007F900A07F06120907EEC313FEDDE6D2A07F0132
:03080900020907DA
:10076B00E4FE7D08D2A00000EEC313FEC2A0000081
:10077B000000D2A00000000030A0034306807F06DB
:09078B00120907DDDFD2A0AF0660
:010794002242
:100830001208B57F021209077FCC1207E77FBE12AC
:0D08400007E712076B8F1212076B8F132250
:10059D00E513D3947F400CE513F404F513E512F441
:1005AD0004F512E512540FF51A9008DF93F514F5C2
:1005BD0016E513540FC454F0FFE51254F0C4540F54
:1005CD004FF51AF51B75F06484F519E51A75F0648D
:1005DD008485F017E51775F00A84F518E51775F0A1
:1005ED000A8485F017E519700A75190AE518700364
:0305FD0075180A64
:0106000022D7
:1008CD001208B57F011209077FCC1207E77F44029A
:0208DD0007E72B
:090911001208CD12083002059D08
:0E087400081E0000000000000000021C000032
:10084D00C290E4FEEFC4131313540124FF9292EFF0
:0B085D0025E0FFC290D2900EBE08E91B
:01086800226D
:10080C00E4FFFEC290FDFCEF25E0FFEE33FED2903C
:10081C00C290A293E43342070DBD00010CED640CB1
:03082C004C70E429
:01082F0022A6
:0207BE00AB0787
:1007C000C290C29112084D7F06DFFED2900000C297
:1007D00090000012080CD291BBA40BEF7802C33337
:0607E000CE33CED8F9FF74
:0107E60022F0
:020537008F260D
:10053900E4F52BF52CAB2AAA29A928A827C000C0C5
:1005490001C002C003AF261207BEAC06AD07E41214
:1005590002A6D003D002D001D00012000A8F2A8E41
:10056900298D288C27052CE52C7002052BC3946452
:10057900E52B940040BFAF2AAE29AD28AC27E4FB98
:10058900FA79C878421202048F2A8E298D288C277D
:030599001202DF6C
:01059C00223C
:10065E00051DE51D7002051C6405451C70097F947F
:10066E001205378E1E8F1FE51D640A451C70097F0B
:10067E00D41205378E208F21E51D640F451C70099D
:10068E007FA41205378E228F23E51D6414451C703E
:10069E00097FE41205378E248F25C3E51D9414E5DA
:0C06AE001C648094804005E4F51CF51DE0
:0106BA00221D
:1000030002034BE86480F8E933E83360110460F0DD
:10001300ED33EC337009E8FCE9FDEAFEEBFF220463
:1000230060DED3EB9FEA9EE99DE8C2E78CF0C2F75E
:1000330095F0400CE8CCF8E9CDF9EACEFAEBCFFB2A
:1000430012031685D0F05804700320D5B3E804706A
:10005300075002B2D502035592D5EC0460F7E4CC05
:10006300C0E0C398F8603B94186008400DD0E0FBF3
:1000730002032DE4FBFAC9FC8028E830E406E4C956
:10008300FBE4CAFCE830E305E4C9CACBFCE8540747
:100093006010F8C3E913F9EA13FAEB13FBEC13FC52
:1000A300D8F130F52FC3E49CFCEF9BFFEE9AFEEDF5
:1000B30099FDD0E0FBEF4E4D4C701222DB0302039F
:1000C30052EC2CFCEF33FFEE33FEED33FDED30E766
:1000D300EB02032DEF2BFFEE3AFEED39FDD0E0FBF3
:1000E30050130BBB0003020355ED13FDEE13FEEF9C
:0800F30013FFEC13FC02032DC6
:1000FB00EC4D6011E8497017ED33EC3304600DE4FF
:10010B00FCFFFEFD22E933E8330470F802034B12C7
:10011B00031658046009E4CC2481500628500902C8
:10012B000355284003020352C0E0EB4A7044B980E8
:10013B0006D0E0FB020341EF4E701CBD8008EBFFC5
:10014B00EAFEE9FD80EBE98DF0A4FEE5F00201E4A7
:10015B00E9CDF9EAFEEBFFEF89F0A4FCE5F0CE89DF
:10016B00F0A42EFFE435F0CD89F0A42DFEE435F09C
:10017B008067EF4E7005BD80D780C3EF8BF0A4ACCA
:10018B00F0EE8BF0A42CFCE435F0F8EF8AF0A42C05
:10019B00E5F038FCE433CB8DF0A42CFCE5F03BF818
:1001AB00EE8AF0A42CFCE5F038F8E433CF89F0A408
:1001BB002CFCE5F038CF3400CE89F0A42FFFE5F00E
:1001CB003EFEE433C98DF0A42EFEE5F039CD8AF066
:1001DB00A42FFFE5F03EFEE43DFD33D0E0FB5007DE
:1001EB000BBB000F020355EC2CFCEF33FFEE33FE81
:0601FB00ED33FD02032DAF
:10020100020355EC5D046005E85904700302034BD9
:10021100120316580460F6EC4860F2EC7004FDFE1F
:10022100FF22C860DB2481C85009C39860025006D0
:100231000203529850CAF582E9294B4A7005AB82F4
:1002410002034175F0007C1A7880C3EF9BEE9AEDB2
:1002510099400DC3EF9BFFEE9AFEED99FDE842F048
:10026100DC23ACF0D0E0FFD0E0FED0E0FDAB82209B
:10027100E7101BEB60BAEC2CFCEF33FFEE33FEED25
:1002810033FD02032DE803F830E705C0F075F000F7
:10029100EF2FFFEE33FEED33FD40B830E7C280AA09
:1002A10075F020800E75F010800575F0087D007ED8
:1002B100007F003392D530D5031203F4EC334010A4
:1002C100EF33FFEE33FEED33FDEC33FCD5F0ED22E1
:0E02D100E5F0247EA2D513CC92E7CDCEFF221D
:1002DF00EDD2E7CD33EC3392D524814006E4FFFE17
:1002EF00FDFC22FCE4CFCECDCC24E0501174FF8076
:1002FF00EDC3CC13CCCD13CDCE13CECF13CF047013
:07030F00F030D5DE0203F41B
:10031600E9D2E7C933E833F892D5EDD2E7CD33EC2D
:0703260033FC5002B2D522A6
:10032D00EC30E7100FBF000C0EBE00080DBD000431
:10033D000BEB6014A2D5EB13FCED92E7FD2274FFDD
:10034D00FCFDFEFF22E480F8A2D574FF13FC7D8036
:03035D00E480EF4A
:030000000204AB4C
:0C04AB00787FE4F6D8FD75812C0204F285
:10036000BB010CE58229F582E5833AF583E0225052
:1003700006E92582F8E622BBFE06E92582F8E2229C
:0D038000E58229F582E5833AF583E49322B6
:10038D00EF8DF0A4A8F0CF8CF0A428CE8DF0A42E84
:02039D00FE223E
:10039F00BC000BBE0029EF8DF084FFADF022E4CC42
:1003AF00F875F008EF2FFFEE33FEEC33FCEE9DEC0B
:1003BF00984005FCEE9DFE0FD5F0E9E4CEFD22ED51
:1003CF00F8F5F0EE8420D21CFEADF075F008EF2F9B
:1003DF00FFED33FD4007985006D5F0F222C398FD8C
:0503EF000FD5F0EA2229
:0E03F400C3E49FFFE49EFEE49DFDE49CFC221A
:1004B700020402E493A3F8E493A34003F68001F255
:1004C70008DFF48029E493A3F85407240CC8C33346
:1004D700C4540F4420C8834004F456800146F6DF15
:1004E700E4800B0102040810204080900869E47E34
:1004F700019360BCA3FF543F30E509541FFEE4930A
:10050700A360010ECF54C025E060A840B8E493A3D0
:10051700FAE493A3F8E493A3C8C582C8CAC583CAFB
:10052700F0A3C8C582C8CAC583CADFE9DEE780BEB3
:010882000075
:00000001FF
