:020000040800F2
:10000000B8140020010100083D0D0008150B000880
:10001000390D0008E1060008432300080000000035
:10002000000000000000000000000000DD0E0008DD
:10003000F107000800000000C50D0008E9110008E4
:100040001B0100081B0100081B0100081B01000820
:100050001B0100081B0100081B0100081B01000810
:100060001B0100081B0100081B0100081B01000800
:100070001B0100081B0100081B0100081B010008F0
:100080001B0100081B0100081B0100081B010008E0
:100090001B0100081B0100081B0100081B010008D0
:1000A0001B010008D11600081B0100081B010008F5
:1000B000FD160008791700086D1800081B010008DC
:1000C0001B0100081B0100081B0100081B010008A0
:1000D0001B010008291F00081B0100081B01000864
:1000E0001B0100081B0100081B010008DFF80CD0F1
:1000F00000F0B8FA00480047BD2C0008B8140020F2
:100100000648804706480047FEE7FEE7FEE7FEE7B1
:10011000FEE7FEE7FEE7FEE7FEE7FEE71512000852
:10012000ED000008D2B201E000F8012B491EFBD21D
:1001300070470022F6E710B513460A4604461946F2
:10014000FFF7F0FF204610BD2DE9FE4F804681EA03
:100150000300C00F0C46009021F0004123F0004541
:10016000B8EB0200A94105D24046214690461C4604
:100170000B46024623F00040104347D0270DC7F33B
:100180000A00C3F30A510290401A019040286BDA2A
:10019000C3F3130040F4801B0098924620B1002363
:1001A000D2EB030A63EB0B0B01985946C0F14002F6
:1001B000504600F0A9F906460D4650465946019AA8
:1001C00000F0B1F910EB08006141002487EA1152F8
:1001D00084EAE7731A4340D0009A62B3019A012A75
:1001E0004FEA075215DC001B61EB02014FF00042A1
:1001F00002EA0752CDE90042001C41F58011324667
:100200002B4600F0B1F903B0BDE8F08F404621461F
:10021000F9E7001B61EB0201001C41F58013001897
:100220005B412018A2F5001747EB030140EAD570A7
:10023000B6196D4111E06D084FEA360645EAC07502
:100240004FEA0752001B61EB0201001C41F58011CF
:1002500049084FEA30000019514132462B4603B09D
:10026000BDE8F04F00F071B9009801224000002372
:10027000D0EB020263EBE073009821464FEAE07492
:10028000B8EB000061EB0401E9E783F000435BE7B2
:1002900081F0004158E72DE9FE4F81EA030404F0A4
:1002A000004421F0004100944FF0000B23F0004384
:1002B00050EA01045ED052EA03045BD0C3F30A544F
:1002C000C1F30A552C44A4F2F3340194A0FB025468
:1002D000C1F3130141F48011C3F3130343F48013FA
:1002E00001FB024400FB034E840A970A44EA81544E
:1002F00047EA8357A4FB076802958D0A05FB07852B
:100300004FEA932C04FB0C542705029D4FEA065834
:1003100047EA1637B5EB08056EEB070C870E920E11
:1003200047EA811742EA8312A7FB0201B6EB0B01F1
:1003300064EB00042B0D43EA0C335E1844EB1C50B5
:10034000DA465146E7FB0201C5F313044FEA0B33CB
:1003500043EA14534FEA0432019C43EA0603A4F132
:100360000C040294009CCDE900B400F0FDF803B049
:10037000BDE8F08F00200146F9E72DE9F04D81EA54
:10038000030404F0004B21F0004514464FF0000A2E
:1003900023F0004150EA050220D054EA01021DD0AA
:1003A000C5F30A570246C5F31303C1F31300C1F3A3
:1003B0000A5640F4801543F48013A7EB0608101B7F
:1003C000D64608F2FD3873EB050002D308F10108A8
:1003D00001E092185B41B8F1000F03DA00200146FA
:1003E000BDE8F08D00204FF48011064684460EE0F3
:1003F000171B73EB050705D3121B63EB05030643BD
:100400004CEA010C49084FEA300092185B4150EA6F
:100410000107EDD152EA030012D082EA040083EA18
:100420000501084305D0101BAB4106D20122002371
:1004300006E000224FF0004302E06FF0010253108B
:100440001AEB06004CEB085110EB0A0041EB0B01D4
:10045000BDE8F04D00F079B80EB5C10F80EAE0704C
:100460000844CA07002140F233438DE80E000A46D3
:100470000B4600F079F803B000BD30B50B460146DD
:1004800000202022012409E021FA02F59D4205D333
:1004900003FA02F5491B04FA02F52844151EA2F1DD
:1004A0000102F1DC30BD2DE9F05F054600209246E7
:1004B0009B4688460646814640241BE02846414626
:1004C0004746224600F0E0F853465A46C01A91418A
:1004D00010D311461846224600F016F82D1A67EB85
:1004E00001084F4622460120002100F00DF817EBCD
:1004F00000094E41201EA4F10104DFDC48463146CC
:100500002A464346BDE8F09F202A04DB203A00FA41
:1005100002F1002070479140C2F1200320FA03F35A
:10052000194390407047202A06DBCB17203A41FA46
:1005300002F043EAE07306E041FA02F3D040C2F170
:100540002002914008431946704710B5141E73F1FC
:10055000000408DA401C41F1000192185B411A4383
:1005600001D120F0010010BD2DE9F04D92469B46CF
:1005700011B1B1FA81F202E0B0FA80F22032904675
:10058000FFF7C2FF04460F4640EA0A0041EA0B01AA
:1005900053465A46084313D0114653EA010019D076
:1005A000C8F14002504600F06FF805460E4650462E
:1005B00059464246FFF7A8FF084305D0012004E052
:1005C00020463946BDE8F08D0020054346EAE07636
:1005D0002C4337430A986305E40AA0EB0800002285
:1005E000FD0A44EA47540A3002D500200146E9E7F3
:1005F000010510196941DDE9084500196941BDE8A7
:10060000F04DA2E7C1F30A52C1F3130140F2FF33E8
:1006100041F480119A4202DA00200146704740F20C
:1006200033439A42A2F2334202DC524200F02CB829
:10063000FFF76ABF30B5041E71F1000404DB4FF010
:100640000044404264EB0101141E73F1000405DB19
:100650001C464FF00043524263EB0403994208BF2B
:10066000904230BD064C074D06E0E06840F00103C3
:1006700094E8070098471034AC42F6D3FFF73AFDF0
:10068000082E0008282E0008202A04DB203A21FA30
:1006900002F00021704721FA02F3D040C2F120029B
:1006A000914008431946704708B50121042000F025
:1006B0009BFB0020009010208DF80300C002ADF8D5
:1006C000000003208DF802006946044800F0E3F8BA
:1006D0004FF40041014800F0BAF908BD000801409C
:1006E00000BFFEE710B502460021137813B9537816
:1006F000FF2B01D04FF0FF30002111E093780C4C1C
:1007000004EB8104A478A34208D1D378084C04EB0D
:100710008104E478A34201D1084603E04B1CD9B21E
:100720001129EBDB00BF112901DB6FF0010010BDC7
:100730008900002010B50446322C05D14FF4FA711F
:10074000002000F0CDFB43E0382C05D14FF4FA71C6
:10075000012000F0C5FB3BE0342C05D14FF4FA71C9
:10076000022000F0BDFB33E0362C05D14FF4FA71C6
:10077000032000F0B5FB2BE0392C14D11549098872
:10078000643188B200F02AFD12480088B0F5617F1C
:1007900003DB4FF461700F4908800E4801880EA0FA
:1007A00001F004FE14E0372C0DD10A4909886439A0
:1007B00088B200F013FD07480088002808DC0020FC
:1007C0000449088004E04FF4FA71042000F088FB2B
:1007D00010BD00002800002063757272656E745FA2
:1007E000737065656431206973202564200D0A00EB
:1007F000704700BF00BF00BF00BF00BF00BF00BF09
:1008000000BF00BF00BF00BF00BF00BF00BF00BFF0
:1008100000BF00BF00BF00BF00BF00BF00BF00BFE0
:1008200000BF00BF00BF00BF00BF00BF00BF00BFD0
:1008300000BF00BF00BF00BF00BF00BF00BF00BFC0
:1008400000BF00BF00BF00BF00BF00BF00BF00BFB0
:1008500000BF00BF00BF00BF00BF00BF00BF00BFA0
:1008600000BF00BF00BF00BF00BF00BF00BF00BF90
:1008700000BF00BF00BF00BF00BF00BF00BF00BF80
:1008800000BF704700B501E0FFF7B3FF011EA0F104
:100890000100F9D100BD2DE9F041024600250026F6
:1008A000002000230024002791F803C00CF00F055E
:1008B00091F803C00CF0100CBCF1000F03D091F8BC
:1008C00002C04CEA050591F800C0BCF1000F31D020
:1008D000146800202BE04FF0010C0CFA00F3B1F883
:1008E00000C00CEA03069E4220D183004FF00F0C9B
:1008F0000CFA03F7BC4305FA03FC4CEA040491F834
:1009000003C0BCF1280F06D14FF0010C0CFA00FC1B
:10091000C2F814C00AE091F803C0BCF1480F05D139
:100920004FF0010C0CFA00FCC2F810C0401C082863
:10093000D1D31460B1F800C0BCF1FF0F34DD5468AE
:1009400000202EE000F1080C4FF0010808FA0CF32B
:10095000B1F800C00CEA03069E4221D183004FF09B
:100960000F0C0CFA03F7BC4305FA03FC4CEA040431
:1009700091F803C0BCF1280F05D100F1080C08FA6A
:100980000CF8C2F8148091F803C0BCF1480F07D1ED
:1009900000F1080C4FF0010808FA0CF8C2F81080BA
:1009A000401C0828CED35460BDE8F081F0B50A465B
:1009B000002300240021002500F00046B6F1004F7E
:1009C00002D11D4EF16901E01B4E7168C0F3034571
:1009D00083B200F44016B6F5401F08D121F07061D3
:1009E000154E766826F07066134F7E6012E000F4B4
:1009F0008016B6F5801F06D1032606FA05F4A1433A
:100A000041F0706106E0460D360103FA06F6B14387
:100A100041F0706122B1460D360103FA06F631430A
:100A200000F00046B6F1004F02D1034EF16101E043
:100A3000014E7160F0BD0000000001400246002040
:100A400093680B400BB1012000E00020704741612A
:100A5000704701617047000000B585B0012110208A
:100A600000F0C2F90121082000F0BEF94FF48040E7
:100A7000ADF8040003208DF8060010208DF8070063
:100A800001A92148FFF707FF4FF48040ADF80400AB
:100A900004208DF8070001A91C48FFF7FCFE012186
:100AA000C80200F0A1F940F2E730ADF80C00472091
:100AB000ADF808000020ADF80E00ADF80A008DF882
:100AC000100002A9124801F063F90121104800F05A
:100AD00041FF012211460E4800F0BEFF19208DF89B
:100AE000000000208DF8010003208DF80200012095
:100AF0008DF80300684600F023F90021044800F057
:100B00002FFF05B000BD0000000C014000100140A7
:100B1000002C014000BFFEE770B50024614800884A
:100B200008B9012070BD604948884FF47A731A46AD
:100B300042F2283101F0ECF908B9022598E05A494F
:100B400088884FF4FA731A4641F2941101F0E0F9E3
:100B500008B902258CE003246EE0534931F81400F3
:100B6000C8231A464FF40C7101F0D2F900285FD067
:100B7000601C84B24C4931F81400C8231A464FF463
:100B80000C7101F0C5F910B3484AD088C21700EBC8
:100B90005272D310454A521CD25C444BD988CB17B1
:100BA00001EB5373DB10A1EBC3060123B3409A435F
:100BB0003E4BD888C31700EB5373DE103B4B5B1CD6
:100BC0009A55581EC088401C591EC88032E03649CC
:100BD00031F81400C8231A4640F29A6101F098F9DE
:100BE000012823D1314AD088C21700EB5272D310AA
:100BF0002E4A521CD25C2D4BD988CB1701EB537374
:100C0000DB10A1EBC3060123B3401A43D3B2274A3A
:100C1000D088C21700EB5272D610244A521C93554A
:100C2000501EC088401C511EC88003E004251FE0F0
:100C300003251DE0601C84B21D480088401EA042B0
:100C40008BDC1A48401CFFF74DFD11280FDA1748BE
:100C5000401CFFF747FD002809DB1448401CFFF744
:100C600041FD1449085C1449087000205AE700BF90
:100C70004FF400610C48FFF75CFA0C480021C0F803
:100C80000110417100200949C880094908800549BF
:100C900008800121880700F063FE0DB1284641E776
:100CA00000203FE7D0000020B4080020D200002040
:100CB000CE00002078000020DA00002008B50121D5
:100CC000102000F091F80020009010208DF8030013
:100CD0000120ADF8000003208DF802006946154898
:100CE000FFF7D9FD01211348FFF7B3FE10208DF85F
:100CF00003000220ADF8000003208DF802006946D1
:100D00000C48FFF7C8FD02210A48FFF7A2FE102099
:100D10008DF803000420ADF8000003208DF80200D8
:100D200069460448FFF7B7FD04210248FFF791FE2A
:100D300008BD00000010014000BFFEE77047000042
:100D400070B5002100230F22C47804B3154C246829
:100D500004F4E064C4F5E064210AC1F10403CA406C
:100D6000447804FA03F184781440214309010E4CBD
:100D70000678A155047804F01F050124AC400578DD
:100D80006D11AD0005F1E025C5F8004109E00478DA
:100D900004F01F050124AC40044D0678761145F897
:100DA000264070BD0CED00E000E400E080E100E0D2
:100DB00002490143024A1160704700000000FA0531
:100DC0000CED00E07047000029B1064AD2690243E9
:100DD000044BDA6104E0034AD2698243014BDA61D1
:100DE000704700000010024029B1064A9269024390
:100DF000044B9A6104E0034A92698243014B9A6171
:100E0000704700000010024030B50021002200248D
:100E100000232D4D6D6805F00C0121B1042905D08A
:100E2000082923D105E0294D056022E0274D056002
:100E30001FE0254D6D6805F47012234D6D6805F4B3
:100E40008034022505EB92421CB9214D55430560C3
:100E50000BE01D4D6D6805F400351DB11C4D55436B
:100E6000056002E0194D5543056002E0174D05602D
:100E700000BF00BF144D6D6805F0F0010909154D64
:100E80006B5C0568DD4045600F4D6D6805F4E06101
:100E9000090A104D6B5C4568DD4085600A4D6D6840
:100EA00005F46051C90A0B4D6B5C4568DD40C560B7
:100EB000054D6D6805F44041890B074D6B5CC568B5
:100EC000B5FBF3F5056130BD0010024000127A0059
:100ED00000093D00000000201000002070470000C5
:100EE0002DE9F04106460F46012E02D101240025CE
:100EF00001E000240125022E2CD100217A4800F0C7
:100F000010FF0021784800F00EFF78480088604309
:100F100081B2754800F009FF74480088684381B2C7
:100F2000714800F004FF0021714800F0FAFE002132
:100F30006F4800F0F8FE6D480088604381B26C484D
:100F400000F0F3FE69480088684381B2684800F009
:100F5000EEFEC6E0012E38D164480088604381B2BD
:100F6000614800F0DEFE61480088684381B25E4857
:100F700000F0D9FE5D480088604381B25A4800F015
:100F8000D4FE5A480088684381B2574800F0CFFE2B
:100F900056480088604381B2554800F0C2FE53486D
:100FA0000088684381B2524800F0BDFE4F48008877
:100FB000604381B24E4800F0B8FE4C480088684358
:100FC00081B24B4800F0B3FE8BE0032E2CD1474892
:100FD0000088604381B2444800F0A3FE4348008883
:100FE000684381B2404800F09EFE00213E4800F078
:100FF0009CFE00213C4800F09AFE3C48008860437B
:1010000081B23B4800F08DFE38480088684381B2C9
:10101000374800F088FE0021354800F086FE0021A8
:10102000334800F084FE5CE0C6BB30480088604373
:1010300081B22D4800F075FE2C480088684381B2CB
:10104000294800F070FE29480088604381B2264894
:1010500000F06BFE25480088684381B2224800F00A
:1010600066FE22480088604381B2214800F059FEA4
:101070001E480088684381B21D4800F054FE1B489A
:101080000088604381B21A4800F04FFE174800887C
:10109000684381B2164800F04AFE22E0FFE7042EC2
:1010A0001FD10021104800F03CFE00210E4800F046
:1010B0003AFE00210C4800F038FE00210A4800F0FA
:1010C00036FE00210A4800F02CFE0021084800F0FE
:1010D0002AFE0021064800F028FE0021044800F006
:1010E00026FEBDE8F081000000040040280000203A
:1010F0000008004010B500F001F810BD0CB500204C
:10110000019000903348006840F480303149086015
:1011100000BF3048006800F4003000900198401C87
:101120000190009818B90198B0F5A06FF1D1294845
:10113000006800F4003010B10120009001E00020B0
:1011400000900098012843D12348006840F0100027
:10115000214908600846006820F00300086008463E
:10116000006840F0020008601A4840681949486069
:101170000846406848600846406840F4806048601F
:101180000846406820F47C1048600846406840F4F7
:10119000E81048600846006840F08070086000BFB2
:1011A0000C48006800F000700028F9D00948406839
:1011B00020F00300074948600846406840F00200FC
:1011C000486000BF0348406800F00C000828F9D1CF
:1011D0000CBD0000001002400020024001490880C0
:1011E000704700002800002007480068401C06499E
:1011F000086006480068401C04490860044800680C
:10120000401C034908607047180000201C000020A3
:101210002000002010B51348006840F0010011497B
:10122000086008464068104908400E494860084672
:1012300000680E4908400B4908600846006820F421
:10124000802008600846406820F4FE0048604FF4A3
:101250001F008860FFF74EFF4FF0006004490860F0
:1012600010BD0000001002400000FFF8FFFFF6FE76
:1012700008ED00E070B501460A46B2F1807F01D367
:1012800001201DE022F07F40401E4FF0E023586116
:1012900058170F23002807DA1C07260E0B4C00F006
:1012A0000F052D1F665503E01C07250E084C25541D
:1012B00000BF00204FF0E023986107201861002054
:1012C00008B1002070BD0120FCE7000018ED00E02F
:1012D00000E400E008B50020009001211020FFF795
:1012E00083FD04208DF803004FF47860ADF8000012
:1012F00003208DF8020069460148FFF7CCFA08BDCB
:101300000010014010B5002400F096F804461F2C90
:101310001BD14748007830B90120454908700020AA
:101320004449086083E04248007801287FD1414861
:101330000068B0F5487F7AD34FF4FA710420FFF7C4
:10134000CFFD00203A49087071E00020384908704C
:10135000172C32D00FDC0F2C38D005DCD4B1012C87
:101360001AD0072C5CD12DE0102C16D0112C12D0E5
:10137000132C55D117E01D2C38D006DC192C2BD09E
:101380001B2C3DD01C2C4BD12BE01E2C32D0FF2C23
:1013900046D13FE000BF00BF00BF4FF4FA71042008
:1013A000FFF79EFD42E04FF4FA710220FFF798FD2F
:1013B0004FF4C870FFF712FF38E04FF49670FFF754
:1013C0000DFF33E0C820FFF709FF2FE04FF4FA715B
:1013D0000220FFF785FD29E04FF4C870FFF7FEFEFD
:1013E00024E04FF49670FFF7F9FE1FE0C820FFF7E6
:1013F000F5FE1BE04FF416710320FFF771FD15E0B9
:101400004FF41670FFF7EAFE4FF416710020FFF755
:1014100067FD0BE04FF4FA710420FFF761FD05E072
:101420004FF4FA710420FFF75BFD00BF00BF10BD51
:10143000DE0000201C00002010B50024802113488D
:10144000FFF7FCFA44EA0010C4B24FF480710F4871
:10145000FFF7F4FA44EAC000C4B24FF400710B483D
:10146000FFF7ECFA44EA8000C4B24FF48061074809
:10147000FFF7E4FA44EA4000C4B24FF400610348C5
:10148000FFF7DCFA0443204610BD000000100140C5
:10149000F0B50C46154600220021068C4FF6FE776B
:1014A0003E400684028B018C4FF60C7632407E1C47
:1014B00006EA03162E433243104EB0420ED0104EB1
:1014C000B0420BD0B0F1804F08D00E4EB04205D0E4
:1014D0000D4EB04202D00D4EB04206D14FF6FD7611
:1014E000314044F00106314305E04FF6F5763140D6
:1014F00044F00106314302830184F0BD002C014019
:10150000003401400004004000080040000C00408E
:10151000F0B50C461546002200210026078C4FF638
:10152000EF7C07EA0C070784028B018C4FF6FF77EC
:1015300007EA041640F6FF473A404FF6FF7707EAFE
:1015400003373A434FF6FF7707EA05273A43114F2F
:10155000B8420ED0104FB8420BD0B0F1804F08D037
:101560000E4FB84205D00E4FB84202D00D4FB842D0
:1015700006D14FF6DF77394046F01007394305E0D2
:101580004FF65F77394044F01007394302830184F6
:10159000F0BD0000002C0140003401400004004078
:1015A00000080040000C0040F0B50C461546002233
:1015B00000210026078C4FF6FF6C07EA0C07078412
:1015C000828B018C4FF6FF7707EA04264FF60C77E3
:1015D0003A404FF6FF7707EA03172F433A43114F7C
:1015E000B8420ED0104FB8420BD0B0F1804F08D0A7
:1015F0000E4FB84205D00E4FB84202D00D4FB84240
:1016000006D14FF6FF57394046F48077394305E05D
:101610004FF2FF57394044F4807739438283018485
:10162000F0BD0000002C01400034014000040040E7
:1016300000080040000C0040F0B50C4615460022A2
:1016400000210026078C4EF6FF7C07EA0C07078472
:10165000828B018C4FF6FF7707EA043640F6FF478E
:101660003A404FF6FF7707EA05273A434FF6FF77F0
:1016700007EA03373A43114FB8420ED0104FB84231
:101680000BD0B0F1804F08D00E4FB84205D00E4FAE
:10169000B84202D00D4FB84206D14DF6FF7739401F
:1016A00046F48057394305E047F6FF57394044F484
:1016B0008057394382830184F0BD0000002C014033
:1016C000003401400004004000080040000C0040CD
:1016D00010B50121074800F058F9012808D101216F
:1016E000044800F03AF904480088401C0249088088
:1016F00010BD0000002C01402A00002010B501217F
:10170000880700F039F9012808D10121800700F08D
:1017100021F9012015490880FFF7FEF90421080787
:1017200000F02AF901281FD10421800700F012F9E6
:101730000E480088C0B94FF08040018F0C480288E5
:101740000088401C0A4B18800A4820F8121000211B
:101750004FF0804000F0EEFA4FF08040008C80F0B7
:1017600020004FF08041088410BD0000D000002010
:10177000CE000020B408002010B50121044800F07C
:1017800004F918B10121024800F0E7F810BD00008B
:101790000004004030B589B005460C460121022006
:1017A000FFF712FB01210420FFF71EFB0121082097
:1017B000FFF71AFBC020ADF8200018208DF8230099
:1017C00003208DF8220008A92548FFF764F80320BC
:1017D000ADF8200018208DF8230003208DF822009A
:1017E00008A92048FFF757F8ADF81850ADF8144095
:1017F0000020ADF81A00ADF8160005A91A4800F04F
:10180000C7FA7020ADF804000120ADF806000020F2
:10181000ADF80C0001A9144800F07EF901A91248A6
:1018200000F024F901A9104800F0D6F901A90E48EA
:1018300000F02CFA08210C4800F0C0F908210A48F1
:1018400000F060F90821084800F016FA082106485F
:1018500000F05AFA0121044800F082F809B030BDC6
:1018600000080140000C01400004004010B50121B7
:10187000044800F08AF818B10121024800F06DF820
:1018800010BD00000008004030B589B005460C4688
:1018900001210420FFF798FA01210820FFF7A4FA9C
:1018A0004FF47070ADF8200018208DF8230003204D
:1018B0008DF8220008A91F48FEF7EDFFADF818507B
:1018C000ADF814400020ADF81A00ADF8160005A9D7
:1018D000194800F05DFA7020ADF804000120ADF861
:1018E00006000020ADF80C0001A9134800F014F91F
:1018F00001A9114800F0BAF801A90F4800F06CF9ED
:1019000001A90D4800F0C2F908210B4800F056F972
:101910000821094800F0F6F80821074800F0ACF962
:101920000821054800F0F0F90121034800F018F8FB
:1019300009B030BD000C01400008004021B1028810
:1019400042F08002028004E002884FF67F731A4062
:1019500002807047CA4302827047CA4302827047BE
:1019600021B1028842F00102028004E002884FF6B1
:10197000FE731A400280704702460020138A0B4013
:101980000BB1012000E00020704730B50246002076
:1019900000230024158A05EA0103958905EA01045C
:1019A00013B10CB1012000E0002030BD70B5054638
:1019B0000C46244885420ED0234885420BD0B5F111
:1019C000804F08D02148854205D02148854202D069
:1019D0002048854200D100E000BF208850B923890B
:1019E000A28861882846FFF753FDE188284600F069
:1019F000A3F925E0208804280AD12389A2886188D8
:101A00002846FFF785FDE188284600F09EF917E09B
:101A1000208808280AD12389A28861882846FFF7F0
:101A2000C3FDE188284600F09DF909E02389A288DA
:101A300061882846FFF700FEE188284600F09BF900
:101A400070BD0000002C0140003401400004004043
:101A500000080040000C00401AB183890B438381C9
:101A600002E083898B4383817047000070B50024B6
:101A700000220023058C4FF6FE7635400584028C4B
:101A80008388048B4FF68F752C40B51E2C400D8833
:101A90002C43751E2A400D892A434D882A43144D34
:101AA000A8420BD0134DA84208D0134DA84205D030
:101AB000124DA84202D0124DA84213D14FF6F7752D
:101AC0002A404D892A434FF6FB752A408D882A43C8
:101AD0004FF6FF652B404FF6FF552B408D892B436A
:101AE000CD892B4383800483CD888586028470BD95
:101AF000002C0140003401400040014000440140FE
:101B0000004801400A460021018B4FF6F773194047
:101B1000114301837047000070B5002400220023A8
:101B2000058C4FF6EF7635400584028C8388048B54
:101B300048F6FF752C404FF6FF452C400D884FF6B8
:101B4000FF7606EA05252C434FF6DF752A400D89FE
:101B500006EA05152A434D8806EA05152A43154D60
:101B6000A84202D0144DA8421DD14FF67F752A40DD
:101B70004D894FF6FF7606EA05152A434FF6BF75E5
:101B80002A408D8806EA05152A434FF6FF352B407B
:101B90004FF2FF752B408D8906EA85052B43CD89D1
:101BA00006EA85052B4383800483CD88058702845C
:101BB00070BD0000002C0140003401400A460021A5
:101BC000018B4FF2FF7319404FF6FF7303EA0223B4
:101BD000194301837047000070B5002400220023E0
:101BE000058C4FF6FF6635400584028C8388848B14
:101BF0004FF68F752C404FF6FC752C400D882C430A
:101C00004FF6FF552A400D894FF6FF7606EA052567
:101C10002A434D8806EA05252A43154DA84202D0DD
:101C2000144DA8421DD14FF2FF752A404D894FF641
:101C3000FF7606EA05252A434FF6FF352A408D88B0
:101C400006EA05252A434EF6FF752B404DF6FF7533
:101C50002B408D8906EA05152B43CD8906EA05152B
:101C60002B4383808483CD888587028470BD0000E8
:101C7000002C0140003401400A460021818B4FF6C0
:101C8000F7731940114381837047000070B500223B
:101C900000230024058C4EF6FF7635400584038C26
:101CA0008488828B48F6FF752A404FF6FF452A400C
:101CB0000D884FF6FF7606EA05252A434DF6FF7597
:101CC0002B400D8906EA05352B434D8806EA05357C
:101CD0002B430B4DA84202D00A4DA84208D14BF627
:101CE000FF752C408D894FF6FF7606EA85152C434B
:101CF00084808283CD88A0F84050038470BD0000AA
:101D0000002C0140003401400A460021818B4FF233
:101D1000FF7319404FF6FF7303EA022319438183CF
:101D20007047818670470187704781877047A0F8A8
:101D30004010704781847047028B4FF6F3731A404E
:101D40000283028B0A4302837047028B4FF2FF33F8
:101D50001A400283028B4FF6FF7303EA01231A43F2
:101D600002837047828B4FF6F3731A408283828B13
:101D70000A4382837047828B4FF2FF331A4082837B
:101D8000828B4FF6FF7303EA01231A438283704765
:101D9000002202881D4B98420ED01D4B98420BD05A
:101DA000B0F1804F08D01B4B984205D01A4B984297
:101DB00002D01A4B984204D14FF68F731A404B88C9
:101DC0001A43174B984207D0164B984204D04FF64F
:101DD000FF431A40CB881A4302808B8883850B8887
:101DE00003850A4B98420BD0094B984208D00E4B02
:101DF000984205D00D4B984202D00D4B984201D12C
:101E00000B7A03860123838270470000002C014077
:101E1000003401400004004000080040000C004075
:101E20000010004000140040004001400044014008
:101E30000048014070B588B004460D4601210846AF
:101E4000FEF7C2FF01210420FEF7CEFF28208DF807
:101E50001F000220ADF81C0003208DF81E0007A90A
:101E60002848FEF718FD0420ADF810000220ADF858
:101E700012000120ADF814000020ADF81600ADF8F6
:101E8000180004A94FF08040FFF790FD681E80B253
:101E9000ADF80800601E80B2ADF804000020ADF877
:101EA0000A00ADF8060001A94FF08040FFF770FF6F
:101EB00001218807FFF742FD012205218807FFF76E
:101EC000CBFD1C200121002807DA0A07160E0E4A56
:101ED00000F00F031B1FD65403E00A07130E0B4A32
:101EE000135400BF1C20012181404209920002F1DD
:101EF000E022C2F8001100BF01218807FFF730FD82
:101F000008B070BD0008014018ED00E000E400E0FA
:101F100010B50446881AA04204DAC818A04201DDB0
:101F2000012010BD0020FCE770B5894800F004FADC
:101F3000C4B2242C03D08748008824280ED1242C36
:101F400002D100208449086082488349096820F84A
:101F5000114081480068401C7F4908607D48008925
:101F60004D2879D17B484089432875D12C2C04D148
:101F70007A480068401C794908607848006802285F
:101F800006D0032810D005282BD0072863D145E0C0
:101F9000412C05D12C2C03D001207149086002E0AE
:101FA00000206F49086056E06D480068012817D18D
:101FB0002C2C15D02E2C13D000226A4B6A4903C951
:101FC000FEF769F9684A03C2A4F13000FEF744FA4B
:101FD000054665480CC82846FEF7B6F8624A03C2B3
:101FE00039E05F480068012817D12C2C15D02E2C21
:101FF00013D000225B4B5D4903C9FEF74CF95B4AE5
:1020000003C2A4F13000FEF727FA054657480CC872
:102010002846FEF799F8554A03C21CE0504800686C
:10202000012817D12C2C15D02E2C13D000224D4B6B
:102030004F4903C9FEF72FF94D4A03C2A4F13000FE
:10204000FEF70AFA05464A480CC82846FEF77CF80F
:10205000474A03C200BF00BF3E480089472876D1E7
:102060003C484089412872D12C2C04D14148006859
:10207000401C404908603F480068092818D12C2CB2
:1020800015D02E2C13D00022364B3B4903C9FEF746
:1020900002F9394A03C2A4F13000FEF7DDF9054622
:1020A00035480CC82846FEF74FF8334A03C200BF34
:1020B00000BF0A2C4BD1C8212648FEF73AF8002071
:1020C000254908602549086000222C4B264903C990
:1020D000FEF753F92A4A03C20022284B234903C9B9
:1020E000FEF74BF9274A03C200221E4B204903C9C1
:1020F000FEF743F90546244A244BFEF7CCF8244A60
:1021000003C21F480CC823A000F050F91D480CC89A
:1021100024A000F04BF91E480CC826A000F046F998
:102120000022274B144903C9FEF727F905462A4622
:102130000B4624A000F03AF900210B4A11605160CF
:1021400000200A4A10605060094A1160516070BD59
:1021500000380140E400002030000020340000205E
:1021600038000020000024404000002048000020EB
:10217000500000203C00002058000020D012634195
:1021800060000020680000202EFF21FDF675E03F72
:10219000700000206C6F6E6769747564653A202565
:1021A000660D0A006C617469747564653A20256671
:1021B0000D0A000073706565643A2025660D0A00FB
:1021C00000005940686967683A2025660D0A0000DA
:1021D00021B1828942F40052828104E082894DF665
:1021E000FF731A408281704710B586B00446012102
:1021F00044F20400FEF7F8FD18208DF817004FF4A4
:102200000070ADF8140003208DF8160005A91248DF
:10221000FEF741FB04208DF817000002ADF8140012
:1022200005A90D48FEF737FB01940020ADF810001A
:102230000C20ADF80E000020ADF80C00ADF80A003F
:10224000ADF8080001A9054800F00AF8012103488B
:10225000FFF7BEFF06B010BD000801400038014086
:102260002DE9F04786B005460E460024A24600BF81
:10227000A1460027B08900B100BF2F462C8A4CF63A
:10228000FF700440F08804432C82AC894EF6F310B2
:102290000440B08831890843718908430443AC8104
:1022A000AC8A4FF6FF400440B0890443AC8201A8D9
:1022B000FEF7AAFD1F48874202D1DDF810A001E019
:1022C000DDF80CA0A88900F4004040B10AEBCA0078
:1022D00000EB0A1031684900B0FBF1F807E00AEBA7
:1022E000CA0000EB0A1031688900B0FBF1F86420E5
:1022F000B8FBF0F004012009642101FB1089A889D2
:1023000000F4004040B1322000EBC900B0FBF1F016
:1023100000F00700044308E0322000EB09106421BC
:10232000B0FBF1F000F00F0004432C8106B0BDE8D3
:10233000F08700000038014001468888C0F308009B
:10234000704700BFFEE7000008B501210420FEF73A
:102350004BFD0020009010208DF803000120ADF807
:10236000000003208DF8020069460F48FEF793FA3B
:1023700010208DF803000220ADF8000003208DF836
:10238000020069460848FEF786FA10208DF803001F
:102390000420ADF8000003208DF8020069460248D1
:1023A000FEF779FA08BD0000001001400FB4054B9C
:1023B00010B503A9044A029800F0DAF810BC5DF8E1
:1023C00014FB0000A12C0008E000002002E008C877
:1023D000121F08C1002AFAD170477047002001E09F
:1023E00001C1121F002AFBD1704700002DE9FF5FD9
:1023F00082B00021DDE90430020DDDF840B0034376
:1024000018D044F61050A2F2FF324243151411982E
:1024100001281FD0A5EB0B00401C5FEA000A4FF01B
:1024200000064E4FDFF83891B046504615D5CAF138
:10243000000413E0119801244AA3012801D16FEA96
:102440000B010298119AC0E90031C0E9024206B0BE
:10245000BDE8F09FCBF10000DFE704460021404AD1
:10246000491842EB0450CDE9001012E0E00707D014
:1024700032463B4640464946FDF70DFF80468946B9
:1024800032463B4610461946FDF705FF06460F4605
:102490006410002CEAD1DDE90401DDE90023BAF182
:1024A000000F06DAFDF7F7FE42464B46FDF7F3FE56
:1024B00005E0FDF762FF42464B46FDF75EFF04462E
:1024C0000E460022284BFEF7B5F803D84FF0FF3038
:1024D000014607E00022254B20463146FDF734FE39
:1024E000FEF790F8102409E0002C0ADB0A220023F2
:1024F000FDF7D9FF039B30321A55641E50EA0102E2
:10250000F2D1641C039AC4F111031444119A012AF4
:1025100003D0012208430DD10AE0084304D0002073
:102520004FF0110B119072E7A3EB0B056D1E0DE040
:102530005B4504DD4FF0000205F1010504E003DA1C
:102540004FF00002A5F10105002AECD00298119984
:10255000C0E90231C0E9004579E7000000001440FD
:102560000000F03F300000000000F0430000E03FBA
:102570002DE9FF4F95B09B468946064600250FE2A0
:10258000252877D100242746F84A0121059400E048
:10259000044316F8013F203B01FA03F01042F7D143
:1025A00030782A2811D06FF02F033078A0F1300254
:1025B000092A16D8059A44F0020402EB820203EBC2
:1025C00042021044761C0590EFE759F8042B05925F
:1025D000002A03DA504244F40054059044F0020407
:1025E000761C30782E2816D116F8010F44F004041A
:1025F0002A280DD06FF02F023078A0F13003092B7C
:1026000009D807EB870302EB4303C718761CF3E7EF
:1026100059F8047B761C30786C280FD006DC4C28E7
:1026200017D068280DD06A2814D104E0742810D07F
:102630007A280FD10DE044F400140AE044F4801429
:1026400001E044F440147278824202D104F580140F
:10265000761C761C307866280BD013DC582877D08F
:1026600009DC002875D04528F6D04628F4D0472844
:102670001AD19DE118E0632835D0642879D0652807
:1026800012D195E1702873D008DC6728F1D0692851
:102690006FD06E280DD06F2806D1B5E073282CD0EE
:1026A000752875D0782874D05A46179990476D1CB4
:1026B00075E1C4F30250022809D003280DD0D9F8DF
:1026C000001004280DD00D6009F1040967E1D9F864
:1026D0000010EA17C1E90052F6E7D9F800100D80A2
:1026E000F2E70D70F0E719F8041B8DF800100020D8
:1026F0008DF80100EA46012003E059F804AB4FF0E1
:10270000FF3061074FF0000102D40DE008F1010134
:102710008846B9420FDA8045F8DB1AF8081000291C
:10272000F4D108E008F1010188468142FADB1AF889
:1027300008100029F6D105985B46A0EB0807214652
:102740003846179A00F094FA284400EB080507E091
:102750004DE029E10DE01AF8010B5A461799904710
:10276000B8F10108F7D25B4621463846179A13E1C3
:1027700042E00A220092C4F302524FF0000A022AF9
:1027800008D059F804CB032A4FEAEC710AD00DE0C7
:1027900029E02AE009F1070121F00702F2E802C16D
:1027A000914609E00FFA8CFC4FEAEC71042A03D140
:1027B0004FFA8CFC4FEAEC71002907DA0A46002137
:1027C000DCF1000C61EB02012D2202E0220504D5B0
:1027D0002B228DF80420012203E0E20701D0202201
:1027E000F7E7904659E00A2102E010220DE010219F
:1027F0004FF0000A00910BE010224FF0000A44F065
:1028000004040827009203E008224FF0000A009217
:10281000C4F30252022A05D059F804CB0021032A3E
:1028200008D009E009F1070121F00702F2E802C12E
:10283000914605E01FFA8CFC042A01D10CF0FF0C34
:102840004FF00008220728D5702806D0009B83F09F
:10285000100353EA0A0305D00EE040228DF804204D
:10286000012208E05CEA010206D030228DF8042043
:102870008DF8050002229046009B83F0080353EA7E
:102880000A030AD15CEA010201D1620705D53022B0
:102890008DF804204FF001087F1E582804D034A082
:1028A00003900EA802900DE036A0F9E7534660466B
:1028B000009AFDF7F8FD84460398825C0298401E5A
:1028C000029002705CEA0100F0D1029806A9081A91
:1028D00000F1200A600702D524F4803400E00127CB
:1028E000574502DDA7EB0A0000E0002000EB0A01DB
:1028F000009005984144401A0590E00306D45B46D9
:102900002146179A059800F0B3F90544002706E020
:1029100001A85A46C05D179990476D1C7F1C47451A
:10292000F6DBE0030CD55B462146179A059800F0CC
:102930009FF9054404E030205A46179990476D1CD2
:102940000099481E00900029F5DC08E002980299E1
:102950005A460078491C0291179990476D1CBAF1AC
:102960000001AAF1010AF1DC65E10000092801007B
:1029700030313233343536373839616263646566F5
:1029800000000000303132333435363738394142B7
:10299000434445460000000000F058F90544761C09
:1029A000307800287FF4ECAD19B02846BDE8F08FF0
:1029B000620700D4062709F1070222F0070CFCE8A1
:1029C0000223E14603F000485FEA080C02D00FF250
:1029D000702C0DE05FEA045C02D50FF2682C07E072
:1029E0005FEAC47C02D00FF2602C01E0AFF2700C01
:1029F0004FF0FF3823F00043CDF850C065280CD0CD
:102A000006DC452809D046281DD047283DD13DE0A9
:102A1000662818D067287ED138E00021112F01DB0D
:102A2000112000E0781CCDE9000106A90EA8FFF7EF
:102A3000DDFCDDE90F010E9A03910021009207F100
:102A4000010A04914DE04FF000400097CDE90110DC
:102A500006A90EA8FFF7CAFCDDE90F0203920E9B40
:102A600011990022DDF80CA00093049211B9791C91
:102A700000EB010AB7EB0A0004D4C0F1FF3007F104
:102A8000010A0490AAEB0700019044E0012F00DA4C
:102A900001270021112F01DD112000E03846CDE98A
:102AA000000106A90EA8FFF7A1FCDDE90F010E9AAF
:102AB0000391002104910092BA4621070CD4039996
:102AC000514500DA8A46BAF1010F05DD009AAAF1F4
:102AD0000101515C302908D0B84202DA10F1040F2C
:102AE00006DA0121CDE9011015E0AAF10101E9E7BB
:102AF000002805DC049901440491AAEB000102E0DE
:102B0000411C514500DD8A460499401A401C019041
:102B10004FF000400290200704D40198504501DB9B
:102B2000CDF8048000208DF84F0002980DF14F077A
:102B3000B0F1004F25D02B200E9002984FF00208E4
:102B400000280CDA404202902D200E9007E00A2166
:102B50000298FDF792FC3031029007F8011DB8F1A0
:102B60000001A8F10108F2DC02980028EFD1791EDB
:102B70000E980870307800F0200040F0450007F80B
:102B8000020D12A8C01B00F107081498007800B1CC
:102B9000012000EB0A01019801EBE0710598414426
:102BA000401A401E0590E00306D45B462146179A62
:102BB000059800F05DF805441498007818B15A465D
:102BC000179990476D1CE00324D55B462146179A60
:102BD000059800F04DF805441CE00498002807DB38
:102BE000DDE90301884203DD0098405C179901E0AC
:102BF000179930205A469047049805F10105401C6A
:102C000004900198401E019004D12E205A46179935
:102C100090476D1CBAF10001AAF1010ADDDC05E064
:102C200017F8010B5A46179990476D1CB8F100012F
:102C3000A8F10108F4DC5B462146179A0598ABE63B
:102C40002D0000002B000000200000002DE9F041C5
:102C5000044600251E461746880404D405E039467C
:102C60002020B0476D1C641EF9D52846BDE8F081D0
:102C70002DE9F041044600251E469046C80301D5C3
:102C8000302700E02027880404D505E04146384677
:102C9000B0476D1C641EF9D52846BDE8F0810000E0
:102CA00000BF054A128802F04002002AF9D0024B08
:102CB0001B1D188070470000003801404FF4A060D1
:102CC000FEF776F801210846FEF78EF801213D480F
:102CD000FDF76CFE3C48FEF7CDFA3C48FFF784FA5E
:102CE000FFF732FBFDF7E0FC472140F2E730FEF74B
:102CF00051FD472140F2E730FEF7C6FD00BF00BF9F
:102D000000BF00BFFDF7A8FE00BF42F210714820CF
:102D1000FFF790F8FEF7DEFA0024FDF7CFFF50E052
:102D20002B4800782A280DD1012401212948FDF7DC
:102D30008EFE04212748FDF78CFE02212548FDF771
:102D400088FE26E022480078302811D10224012193
:102D50002048FDF77EFE04211E48FDF77AFE022181
:102D60001C48FDF774FE4FF4FA70FEF737FA10E0D6
:102D70001748007823280CD1032401211548FDF7BA
:102D800068FE04211348FDF762FE02211148FDF799
:102D900060FE012C0ED10E480078FDF7CBFC0C48EC
:102DA00001780DA0FFF702FB0F4801880FA0FFF785
:102DB000FDFA03E0022C01D1FEF7A4FA1148FDF759
:102DC00061FDADE7000230004019010074B7010059
:102DD000DA0000200010014049525F436F64652013
:102DE00069732025630D0A00140000206375727258
:102DF000656E745F73706565642069732025640D6A
:102E00000A00000020A10700282E00080000002072
:102E1000E4000000CC2300080C2F0008E400002090
:102E2000D4130000DC2300080000000001020304AA
:102E30000102030406070809020406080000000056
:102E4000000000000000000000000000F40100008D
:102E50000000000000000000000000000000000072
:102E60000000000000000000000000000000000062
:102E70000000000000000000000000000000000052
:102E80000000000000000000000000000000000042
:102E90000000000000000000000000000000000032
:102EA0003132333435363738392A30232B4C4F52B0
:102EB0002D00FF45BA00FF46B900FF47B800FF44A8
:102EC000BB00FF40BF00FF43BC00FF07F800FF1539
:102ED000EA00FF09F600FF16E900FF19E600FF0D02
:102EE000F200FF18E700FF08F700FF1CE300FF5A9D
:102EF000A500FF52AD00000000000000000000002F
:0C2F00000000FF000000000000000000C6
:04000005080000ED02
:00000001FF
