:020000040800F2
:10000000680F0020292A0008312A0008332A000836
:10001000352A0008372A0008392A000800000000A5
:100020000000000000000000000000003B2A000863
:100030003D2A0008000000003F2A0008412A00086D
:10004000432A0008432A0008432A0008432A0008DC
:10005000432A0008432A0008432A0008432A0008CC
:10006000432A0008432A0008432A0008432A0008BC
:10007000432A0008432A0008432A0008432A0008AC
:10008000432A0008432A0008432A0008432A00089C
:10009000432A0008432A0008432A0008432A00088C
:1000A000432A00080B390008432A0008432A0008A5
:1000B000432A00087F270008432A0008432A000833
:1000C000432A0008432A0008432A0008432A00085C
:1000D000432A0008432A0008432A0008432A00084C
:1000E000432A0008432A0008432A0008DFF80CD0FE
:1000F00009F01AFF00480047D7280008680F0020C1
:1001000008B50020FD490861C8601420486100203E
:100110008861C8610846006840F001000860084630
:100120004068F7490840F549486008460068F549C5
:100130000840F24908600846006820F48020086002
:100140000846406820F4FE004860002088601D20BA
:100150008DF8000000208DF8010003208DF80200CA
:1001600001208DF80300684605F011FF08BD31B588
:100170000024FFF7C5FFE148006840F48030DF4904
:10018000086000BFDD480068400C0028FAD04FF43A
:100190008060DA4948609DF80000801EC0B200907F
:1001A000084640689DF8001040EA8140D349486005
:1001B0000846406840F480304860D348006840F00A
:1001C0003200D1490860CD48006840F08070CB49CA
:1001D000086000BFC9480068400E0028FAD0C74830
:1001E000406840F00200C549486005E0C3484068E7
:1001F000C0F3870404F00304022CF7D138BD10B516
:10020000C2480078C2114FF40051C14804F029F9E6
:10021000BE480078C043BD49087010BD1CB5002021
:1002200001900090F0234FF4A0720021084602F0E4
:10023000BEFD01221103B64804F013F900BF0121ED
:10024000B34803F0AEFF0128F9D000222021B048C6
:1002500004F007F901222021AD4804F002F901223F
:100260000221AB4804F0FDF800BF0121A84803F0CB
:1002700098FF0028F9D000BF0121A54803F091FFA5
:100280000128F9D000220221A14804F0EAF803F085
:1002900067F90020019034E00020009027E0102052
:1002A0009B4948619B4800689B49088010209849F9
:1002B0000861486197480068C0B2984908801020DA
:1002C00093490861954800889349098840EA0120CC
:1002D000934908800846008892490860C8148C49F0
:1002E00048610861BDF80000401C80B20090BDF874
:1002F0000000B0F5A07FD2DBBDF80400401C80B246
:100300000190BDF80400F028C6DB1CBD2DE9F143C7
:1003100084B0002400250020039002900190BDF8D5
:100320001000C012C0EB00201F2190FBF1F0C0B202
:100330000390BDF81000C0F34510C0EB00203F2132
:1003400090FBF1F0C0B20290BDF8100000F01F0069
:10035000C0EB00201F2190FBF1F0C0B201909DF88E
:100360000C0009F0E1FC04469DF80C0009F0DCFCEF
:1003700005469DF8080009F0D7FC0646214609F01D
:100380001FFD04D89DF8080009F0CEFC04469DF836
:10039000040009F0C9FC0646214609F011FD04D805
:1003A0009DF8040009F0C0FC04469DF8080009F01F
:1003B000BBFC0646294609F0F9FC04D89DF8080064
:1003C00009F0B2FC05469DF8040009F0ADFC0646B4
:1003D000294609F0EBFC04D89DF8040009F0A4FCC0
:1003E00005462146504809F0B7FB06464F4909F03B
:1003F000E5FB4F4908602946204609F0A7FB074660
:10040000494909F0A9FB0646214609F0D7FB4949AD
:1004100008609DF80C0009F087FC0646214609F0AB
:10042000C5FC15D12946204609F090FB07469DF8EA
:1004300008109DF80420881A09F06DFC80463946A2
:1004400009F0BCFB06463C4909F086FB3B490860C5
:100450009DF8080009F068FC0646214609F0A6FC54
:1004600019D12946204609F071FB80469DF80410F9
:100470009DF80C20881A09F04EFC8146414609F08F
:100480009DFB07462C4909F067FB06462C4909F0FD
:100490000BFB2A4908609DF8040009F045FC06465C
:1004A000214609F083FC19D12946204609F04EFB6C
:1004B00080469DF80C109DF80820881A09F02BFC46
:1004C0008146414609F07AFB07461B4909F044FB87
:1004D00006461C4909F0E8FA184908600021174847
:1004E000006809F063FC06D217491448006809F057
:1004F000DBFA1249086005B0BDE8F0830010024045
:100500000000FFF8FFFFF6FE002002400D00002073
:1005100000100140080801400E00002010000020DB
:10052000120000200C0C01400000C84200007F4374
:100530002C00002030000020000070423400002019
:100540000000F042000070430000B4433EB50020BC
:10055000029001900090029009E00020FE49BDF851
:1005600008208854BDF80800401C80B20290BDF8F5
:1005700008009628F1DB002002903EE00020019068
:1005800032E0BDF80820BF3291B2BDF8042002F578
:10059000947290B202F059FD0090BDF800004FF641
:1005A000FF7188421BD1BDF80410CB1701EB5373C8
:1005B000BDF8084004EB440404EBE303E64C1A19CD
:1005C000BDF80400C31700EB5373DB10A0EBC303AB
:1005D000C3F107040123A340147823431370BDF82B
:1005E0000400401C80B20190BDF804001828C8DB4C
:1005F000BDF80800401C80B20290BDF80800322807
:10060000BCDB3EBD13B58AB000200990089007906E
:1006100006900590049003900290019000249DF8AC
:100620002800089070E00024002007903DE0CA48B0
:100630009DF81C10405C04909DF81C009DF8201053
:10064000962202FB0100C549085C03900020069039
:1006500022E09DF81810012088409DF810100840F5
:1006600002909DF81810012088409DF80C10084059
:1006700001909DF808009DF80410884200D1641C88
:100680009DF808009DF80410884200D0641E9DF873
:100690001800401CC0B206909DF818000828D8DB4E
:1006A0009DF81C00401CC0B207909DF81C009628C5
:1006B000BDDBBDF82400A04204DAA0B209909DF889
:1006C0002000059002239DF82020DC21322002F03A
:1006D00097FC002C06DA04230022DC21462002F0DD
:1006E0008FFC05E004232246DC21462002F088FC32
:1006F0000423BDF82420DC21782002F081FC9DF841
:100700002000401CC0B208909DF820009DF82C10DD
:10071000884288DB9DF814000CB010BD1FB5002086
:10072000039002900190009003903EE00020029020
:1007300032E0BDF80810CA1701EB5272BDF80C3058
:1007400003EB430303EBE202854B9A5CBDF8080020
:10075000C31700EB5373DB10A0EBC303C3F1070413
:100760000123A3401A401AB14FF6FF70009001E038
:1007700000200090BDF80C20BF3291B2BDF80820D7
:1007800002F5947290B2BDF8002002F05FFBBDF854
:100790000800401C80B20290BDF808001828C8DB91
:1007A000BDF80C00401C80B20390BDF80C0032284C
:1007B000BCDB1FBD17B58DB000200C900B900A90CC
:1007C0000990202101A809F056F99DF8340001286C
:1007D00013D100200C900CE06248BDF83010405C52
:1007E00001A9BDF830208854BDF83000401C80B20B
:1007F0000C90BDF830002028EEDB9DF83400022874
:1008000013D100200C900CE05748BDF83010405C2C
:1008100001A9BDF830208854BDF83000401C80B2DA
:100820000C90BDF830002028EEDB9DF83400032842
:1008300013D100200C900CE04C48BDF83010405C07
:1008400001A9BDF830208854BDF83000401C80B2AA
:100850000C90BDF830002028EEDB9DF83400042811
:1008600013D100200C900CE04148BDF83010405CE2
:1008700001A9BDF830208854BDF83000401C80B27A
:100880000C90BDF830002028EEDB9DF834000528E0
:1008900013D100200C900CE03648BDF83010405CBD
:1008A00001A9BDF830208854BDF83000401C80B24A
:1008B0000C90BDF830002028EEDB9DF834000628AF
:1008C00013D100200C900CE02B48BDF83010405C98
:1008D00001A9BDF830208854BDF83000401C80B21A
:1008E0000C90BDF830002028EEDB00200C9053E087
:1008F00000200B9047E0BDF82C10CA1701EB527294
:10090000D310BDF8302003EB420201AB9A5CBDF876
:100910002C00C31700EB5373DB10A0EBC303C3F130
:1009200007040123A3401A401AB14FF6FF70099043
:1009300001E000200990BDF83020BDF83C301A4499
:1009400091B2BDF82C20BDF838301A4490B2BDF8F1
:10095000242002F07BFA11E07204002006A90008AE
:10096000B10000204701002067010020870100201E
:10097000A7010020C7010020E7010020BDF82C00DE
:10098000401C80B20B90BDF82C001028B3DBBDF8E2
:100990003000401C80B20C90BDF830001028A7DB5E
:1009A00010B010BD0EB50020029001900090FE48DE
:1009B0000088019040E0FD48BDF80410405C70BB29
:1009C000FB48007802900DE0BDF80800401C81B2A1
:1009D0001F22BDF8040002F039FABDF80800401CDF
:1009E00080B20290BDF80800F24909788842EBDB3A
:1009F0009DF80000401CC0B20090BDF80400401EED
:100A000080B201900CE0BDF80400401E80B201905D
:100A1000BDF80400E8490988884201DC06E006E0E8
:100A2000E248BDF80410405C0028ECD000BFBDF8DF
:100A30000400401E80B20190BDF80400DE49098820
:100A40008842B8DC9DF80000401EC0B2009002232E
:100A50009DF80020DC211E2002F0D2FA9DF8000053
:100A60000EBD03B58DB000200C900B900A9009903C
:100A700008900790069005900490039002900190D2
:100A8000BDF83400BDF83810401A19287EDAC8487D
:100A90000078401CC0B20290C6480078401EC0B228
:100AA000019020E0BDF83800401C80B20B900FE0B0
:100AB0009DF80810BDF82C0002F0C7FA0990BDF8A7
:100AC000240000B10AE0BDF82C00401C80B20B905D
:100AD000BDF82C00BDF834108842E9DB00BFBDF83A
:100AE000240000B106E09DF80800411CC9B2029143
:100AF0000028D7D100BF20E0BDF83800401C80B2EC
:100B00000B900FE09DF80410BDF82C0002F09DFA48
:100B10000990BDF8240000B10AE0BDF82C00401C8B
:100B200080B20B90BDF82C00BDF834108842E9DB90
:100B300000BFBDF8240000B106E09DF80400411E8E
:100B4000C9B201910028D7D100BF9DF80800401E0E
:100B5000C0B202909DF80400801CC0B201904FF614
:100B6000FF729DF80810BDF8380002F06FF94FF6DB
:100B7000FF729DF80410BDF8340002F067F9002000
:100B800004909DF80800401C0C903EE031E20020EB
:100B90000590BDF83800401C80B20B9025E0BDF8F0
:100BA0003010BDF82C0002F050FA09909DF810208A
:100BB00002F1BF01BDF83420BDF83830D21A521E00
:100BC00040F20F139A1A9DF814301A4490B2BDF8EF
:100BD000242002F03BF99DF81400401CC0B205909F
:100BE000BDF82C00401C80B20B90BDF82C00BDF865
:100BF00034108842D3DB9DF81000401CC0B2049032
:100C0000BDF83000401C80B20C90BDF830009DF85B
:100C100004108842BBDB00200490BDF83400BDF80E
:100C20003810401A401EC0F11801BDF83400BDF85C
:100C30003820801A401E91FBF0F0C0B20890BDF839
:100C40003400BDF83810401A401EC0F11801BDF83C
:100C50003400BDF83820801A401E91FBF0F200FBF2
:100C60001210C0B207909DF81C0030B19DF81C0016
:100C7000182191FBF0F0C0B203909DF80800401CD1
:100C80000C90A8E000200590BDF83400BDF83810A5
:100C9000401A401EC0F11801BDF83400BDF83820DC
:100CA000801A401E91FBF0F200FB1210C0B20790B8
:100CB000BDF83800401C80B20B9070E0BDF83010D9
:100CC000BDF82C0002F0C1F909909DF8102002F146
:100CD000BF019DF8142002F20F10BDF8242002F08D
:100CE000B5F89DF81400401CC0B20590BDF8340062
:100CF000BDF83810401A401EC0F11801BDF834008C
:100D0000BDF83820801A401E91FBF0F0C0B2089068
:100D100015E09DF8102002F1BF019DF8142002F2A9
:100D20000F10BDF8242002F091F89DF82000401E1D
:100D3000C0B208909DF81400401CC0B205909DF808
:100D400020000028E5D19DF81C0018B39DF8140080
:100D5000401C9DF80C1090FBF1F201FB1200C8B989
:100D60009DF81400012815D09DF8102002F1BF0154
:100D70009DF8142002F20F10BDF8242002F066F84E
:100D80009DF81C00401EC0B207909DF81400401C46
:100D9000C0B20590BDF82C00401C80B20B90BDF88D
:100DA0002C00BDF8341009E03A0000203203002086
:100DB0001A00002019000020380000208842FFF6A9
:100DC0007DAF9DF81000401CC0B20490BDF830000B
:100DD000401C80B20C90BDF830009DF80410884291
:100DE000FFF650AF4FF4FC62BF2140F20F1002F04B
:100DF0002DF84FF4FC62F02140F20F1002F026F8BB
:100E00004FF4FC62BF2140F2271002F01FF84FF4AC
:100E1000FC62F02140F2271002F018F89DF804005F
:100E20009DF80810401A32287DDA9DF804009DF8DC
:100E30000810401A401CC0F132019DF804009DF8D2
:100E40000820801A401C91FBF0F0C0B208909DF879
:100E500004009DF80810401A401CC0F132019DF8B2
:100E600004009DF80820801A401C91FBF0F200FB62
:100E70001210C0B207909DF81C00322191FBF0F0D7
:100E8000C0B20390002005900C90A1E040F20F103A
:100E90000B9019E0BDF83000BF3081B2BDF82C00D6
:100EA00002F0D3F809909DF8142002F1BF01BDF8BB
:100EB0002C20193290B2BDF8242001F0C7FFBDF8F4
:100EC0002C00401C80B20B90BDF82C00B0F5947F34
:100ED000E0DB9DF81400401CC0B2059031E040F208
:100EE0000F100B901CE0BDF83000BF3081B2BDF890
:100EF0002C0002F0AAF809909DF81420BF32BDF82A
:100F000030301A4491B2BDF82C20193290B2BDF89D
:100F1000242001F09BFFBDF82C00401C80B20B90F8
:100F2000BDF82C0000E05DE0B0F5947FDBDB9DF8C0
:100F30002000401EC0B208909DF81400401CC0B2B2
:100F400005909DF820000028C9D19DF81C00D0B361
:100F50009DF81400401C9DF80C1090FBF1F201FB71
:100F6000120080BB9DF8140001282CD040F20F1015
:100F70000B9019E0BDF83000BF3081B2BDF82C00F5
:100F800002F063F809909DF8142002F1BF01BDF84A
:100F90002C20193290B2BDF8242001F057FFBDF883
:100FA0002C00401C80B20B90BDF82C00B0F5947F53
:100FB000E0DB9DF81C00401EC0B207909DF81400B5
:100FC000401CC0B20590BDF83000401C80B20C90AF
:100FD0009DF804009DF80810401ABDF830108842B2
:100FE0003FF754AF4FF47842BF214FF4A07001F0A7
:100FF0002DFF0FB000BD11B581B000200090FD485D
:101000009DF8041010F8310060B19DF804103223EF
:1010100003EB0112F7499DF8043011F83300092160
:10102000FFF7C8FBF3489DF8041000EBC1004078BF
:101030000A2811DAEF489DF8043000EBC30040782D
:10104000ED4B1A5C9DF80400322303EB00110123E1
:10105000192001F0D5FF10E0E6489DF8043000EBC0
:10106000C3004078E44B1A5C9DF80400322303EB84
:1010700000110023192001F0FCFE9DF8040032222B
:1010800002EB001100232E22212001F0F2FED948AC
:101090009DF8041000EBC10080780A2811DAD548C9
:1010A0009DF8043000EBC3008078D34B1A5C9DF8A8
:1010B0000400322303EB00110123292001F0A0FFDB
:1010C00010E0CC489DF8043000EBC3008078CA4B98
:1010D0001A5C9DF80400322303EB00110023292041
:1010E00001F0C7FEC3489DF8041000EBC100C078B2
:1010F0000A2811DABF489DF8043000EBC300C0781D
:10110000BD4B1A5C9DF80400322303EB0011012350
:10111000312001F075FF10E0B6489DF8043000EB77
:10112000C300C078B44B1A5C9DF80400322303EB73
:1011300000110023312001F09CFEAE489DF8041000
:1011400000EBC10000790A2811DAAA489DF80430A2
:1011500000EBC3000079A84B1A5C9DF80400322311
:1011600003EB00110123392001F04AFF10E0A148F0
:101170009DF8043000EBC30000799F4B1A5C9DF88A
:101180000400322303EB00110023392001F071FE2B
:1011900098489DF8041000EBC10040790A2811DA44
:1011A00094489DF8043000EBC3004079924B1A5CE0
:1011B0009DF80400322303EB00110123412001F0CC
:1011C0001FFF10E08B489DF8043000EBC30040790E
:1011D000894B1A5C9DF80400322303EB00110023B5
:1011E000412001F046FE83489DF8041000EBC10049
:1011F00080790A2811DA7F489DF8043000EBC3009B
:1012000080797D4B1A5C9DF80400322303EB0011BA
:101210000123492001F0F4FE10E076489DF80430E7
:1012200000EBC3008079744B1A5C9DF804003223F4
:1012300003EB00110023492001F01BFE6D489DF8CF
:10124000041000EBC100C07900909DF80400322228
:1012500002EB00110623BDF80020642001F0D0FE4F
:10126000BDF800003C280EDABDF800004FF6FF7311
:1012700003EAC0029DF80400322303EB0011A8200A
:1012800001F05DFE1AE0BDF800003C2190FBF1F09A
:101290004FF4FA714843BDF800103C2291FBF2F381
:1012A00002FB131100EBC10084B29DF8040032224E
:1012B00002EB00112246A82001F041FE1CBD10B532
:1012C00000234E220A21232001F0D3FD00237522A2
:1012D0000A212B2001F0CDFD00236D220A213320AD
:1012E00001F0C7FD002362220A213B2001F0C1FD6D
:1012F000002365220A21432001F0BBFD0023722256
:101300000A214B2001F0B5FD002354220A216B2055
:1013100001F0AFFD002369220A21732001F0A9FD2D
:1013200000236D220A217B2001F0A3FD002365220A
:101330000A21832001F09DFD002350220A21AB20C9
:1013400001F097FD002372220A21B32001F091FDE4
:10135000002369220A21BB2001F08BFD00236322B8
:101360000A21C32001F085FD002365220A21CB203C
:1013700001F07FFD10BD10B5A0B000201F901E90A1
:101380001D901C901B901A9034210DA808F073FB3F
:101390003421684608F06FFB18480088401E80B270
:1013A0001E900DE204E0BDF87800401E80B21E9051
:1013B0001348BDF87810405C0028F4D0BDF87800E0
:1013C000401C1049088004E0BDF87800401E80B23F
:1013D0001E900B48BDF87810405C0028F4DCBDF886
:1013E000780009490880074800880988401A0428BD
:1013F0002CDA10E0080500205F0000203A000020F1
:10140000320300203C0000203E000020BDF87800A0
:10141000401E80B21E90FE48BDF87810405C002847
:10142000F4D0BDF87800401CFA49088004E0BDF80B
:101430007800401E80B21E90F548BDF87810405CE0
:101440000028F4DCBDF87800F349088004E0BDF81A
:101450007800401E80B21E90ED48BDF87810405CC8
:101460000028F4D0BDF87800401CEC49088004E066
:10147000BDF87800401E80B21E90E548BDF8781097
:10148000405C0028F4DCBDF87800E5490880E348BA
:1014900000880988401A042820DA04E0BDF87800A2
:1014A000401E80B21E90DA48BDF87810405C0028DB
:1014B000F4D0BDF87800401CD849088004E0BDF89D
:1014C0007800401E80B21E90D148BDF87810405C74
:1014D0000028F4DCBDF87800D149088004E0BDF8AC
:1014E0007800401E80B21E90C948BDF87810405C5C
:1014F0000028F4D0BDF87800401CCA49088004E0F8
:10150000BDF87800401E80B21E90C148BDF878102A
:10151000405C0028F4DCBDF87800C3490880C1486D
:1015200000880988401A042820DA04E0BDF8780011
:10153000401E80B21E90B648BDF87810405C00286E
:10154000F4D0BDF87800401CB649088004E0BDF82E
:101550007800401E80B21E90AD48BDF87810405C07
:101560000028F4DCBDF87800AF49088004E0BDF83D
:101570007800401E80B21E90A548BDF87810405CEF
:101580000028F4D0BDF87800401CA849088004E089
:10159000BDF87800401E80B21E909D48BDF87810BE
:1015A000405C0028F4DCBDF87800A14908809F4821
:1015B00000880988401A042820DA04E0BDF8780081
:1015C000401E80B21E909248BDF87810405C002802
:1015D000F4D0BDF87800401C9449088004E0BDF8C0
:1015E0007800401E80B21E908948BDF87810405C9B
:1015F0000028F4DCBDF878008D49088004E0BDF8CF
:101600007800401E80B21E908148BDF87810405C82
:101610000028F4D0BDF87800401C8649088004E01A
:10162000BDF87800401E80B21E907948BDF8781051
:10163000405C0028F4DCBDF878007F4908807D48D4
:1016400000880988401A042820DA04E0BDF87800F0
:10165000401E80B21E906E48BDF87810405C002895
:10166000F4D0BDF87800401C7249088004E0BDF851
:101670007800401E80B21E906548BDF87810405C2E
:101680000028F4DCBDF878006B49088004E0BDF860
:101690007800401E80B21E905D48BDF87810405C16
:1016A0000028F4D0BDF87800401C6449088004E0AC
:1016B000BDF87800401E80B21E905548BDF87810E5
:1016C000405C0028F4DCBDF878005D49088004E047
:1016D000BDF87800401E80B21E904D48BDF87810CD
:1016E000405C0028F4D0BDF87800401C55490880C3
:1016F00004E0BDF87800401E80B21E904448BDF85A
:101700007810405C0028F4DCBDF878004E49088071
:101710004C4800880988401A042820DA04E0BDF803
:101720007800401E80B21E903948BDF87810405CA9
:101730000028F4D0BDF87800401C4249088004E03D
:10174000BDF87800401E80B21E903148BDF8781078
:10175000405C0028F4DCBDF878003B49088004E0D8
:10176000BDF87800401E80B21E902948BDF8781060
:10177000405C0028F4D0BDF87800401C3349088054
:101780000BE0BDF8780032490988884200DC0AE0A5
:10179000BDF87800401E80B21E901D48BDF878103C
:1017A000405C0028EDDC00BFBDF8780029490880C6
:1017B000274800881E90BDF87800401E80B21E9019
:1017C000BDF878002249098888423FF7EBAD2248EE
:1017D00000781F90BCE0BDF87C00401C81B21F2245
:1017E0000C48008801F032FBBDF87C00401C81B23F
:1017F0001F220948008801F029FBBDF87C00401C2D
:1018000081B21F220548008801F020FB26E000007D
:10181000320300203C0000203E0000204000002059
:101820004200002044000020460000204800002024
:101830004A0000204C0000204E00002050000020F4
:1018400052000020540000205600002058000020C4
:10185000380000205A0000201A000020BDF87C004B
:10186000401C81B21F22FE48008801F0EFFABDF84B
:101870007C00401C81B21F22FA48008801F0E6FA81
:10188000BDF87C00401C81B21F22F748008801F09F
:10189000DDFABDF87C00401C81B21F22F3480088AD
:1018A00001F0D4FABDF87C00401C81B21F22F04840
:1018B000008801F0CBFABDF87C00401C81B21F22E9
:1018C000EC48008801F0C2FABDF87C00401C81B2EF
:1018D0001F22E948008801F0B9FABDF87C00401CDD
:1018E00081B21F22E548008801F0B0FABDF87C0003
:1018F000401C81B21F22E248008801F0A7FABDF81F
:101900007C00401C81B21F22DE48008801F09EFA54
:10191000BDF87C00401C81B21F22DB48008801F02A
:1019200095FABDF87C00401C81B21F22D748008880
:1019300001F08CFABDF87C00401C81B21F22D44813
:10194000008801F083FABDF87C00401C80B21F9033
:10195000BDF87C00CF4909788842FFF63CAFCE48FD
:101960000188CE480088FFF77CF8FEF7EFFD2421C0
:101970000020FEF747FE1A909DF868000A2809DA51
:10198000C7489DF86810425C0123DC21F02001F07B
:1019900037FB08E0C2489DF86810425C0023DC2158
:1019A000F02001F066FA9DF86800BE498871AC48E5
:1019B0000188BD480088FFF754F8FEF7C7FD2421D1
:1019C0000020FEF71FFE1A909DF868000A2809DA29
:1019D000B3489DF86810425C0123DC21E62001F049
:1019E0000FFB08E0AE489DF86810425C0023DC2144
:1019F000E62001F03EFA9DF86800AA4948719A482D
:101A0000018898480088FFF72CF8FEF79FFD2421F5
:101A10000020FEF7F7FD1A909DF868000A2809DA01
:101A20009F489DF86810425C0123DC21084601F0C4
:101A3000E7FA08E09A489DF86810425C0023DC2130
:101A4000084601F016FA9DF8680096490871884822
:101A5000018886480088FFF704F8FEF777FD242107
:101A60000020FEF7CFFD1A909DF868000A2809DAD9
:101A70008B489DF86810425C0123DC21D22001F0E4
:101A8000BFFA08E086489DF86810425C0023DC211C
:101A9000D22001F0EEF99DF868008249C8707648BE
:101AA000018874480088FEF7DCFFFEF74FFD242113
:101AB0000020FEF7A7FD1A909DF868000A2809DAB1
:101AC00077489DF86810425C0123DC21C82001F0B2
:101AD00097FA08E072489DF86810425C0023DC2108
:101AE000C82001F0C6F99DF868006E49887000238F
:101AF0002E22DC21BE2001F0BCF963480188614838
:101B00000088FEF7AEFFFEF721FD24210A20FEF734
:101B100079FD1A909DF868000A2809DA60489DF856
:101B20006810425C0123DC21B42001F069FA08E06E
:101B30005B489DF86810425C0023DC21B42001F072
:101B400098F99DF8680057494870514801884F48F6
:101B50000088FEF786FFFEF7F9FC2A212420FEF715
:101B600051FD1A909DF868102339C8B2DC22A021DB
:101B7000FEF720FE9DF8680023384A4908704B485C
:101B8000007801F0C3FF4948007802F069F948493C
:101B9000086002F077F94749086008460168444840
:101BA000006807F073FFB0B901F090FF002008E073
:101BB0003C49095C404A3D4B1B7802EBC30211547F
:101BC000401C0728F4DB39480078401C374908706E
:101BD00001F083FF16E001F079FF364801683448D0
:101BE000006802F074F90446002007E02D490A5C01
:101BF000611E314B03EBC1010A54401C0728F5DB81
:101C000001F06BFF002001F0FBF8FFF758FB00200C
:101C1000FFF7F1F90120FFF7EEF90220FFF7EBF9EA
:101C20000320FFF7E8F90420FFF7E5F920B010BD25
:101C30001CB5002001900090019049E04FF44662ED
:101C4000BDF804100A2001F001F94FF44662BDF816
:101C50000410142001F0FAF84FF446622EE0000060
:101C600042000020440000204600002048000020E0
:101C70004A0000204C0000204E00002050000020B0
:101C80005200002054000020560000205800002080
:101C90005A000020190000203E0000203C000020D7
:101CA0005F000020AA00002040000020000000206B
:101CB000040000200800002008050020BDF80410E2
:101CC0001E2001F0C3F8BDF80400401C80B2019052
:101CD000BDF80400F028B1DB0020019028E0FE49A7
:101CE000BDF80420885C4FF47842BDF8041001F080
:101CF000ADF8F948BDF80410405C0C2813DB232034
:101D000000900CE04FF44662BDF80410BDF80000EE
:101D100001F09CF8BDF80000401C80B20090BDF8B6
:101D200000002828EEDBBDF80400401C80B20190C2
:101D3000BDF80400F028D2DB1CBD1CB500200190CA
:101D40000090F020E54908700020E54908700190F6
:101D50002DE004E0BDF80400401C80B20190DE4894
:101D6000BDF80410405C0C28F4DBBDF80400DB492E
:101D7000087004E0BDF80400401C80B20190D64811
:101D8000BDF80410405C0C28F4DABDF80400D44916
:101D9000087008460078D1490978401A0F2801DBFD
:101DA000F0200190BDF80400401C80B20190BDF805
:101DB0000400F028CDDBC9480078C01EC749087070
:101DC000C7480078801CC64908701E2001900BE0AF
:101DD0001F22C3480178BDF8040001F037F8BDF8B0
:101DE0000400401C80B20190BDF80400B0F58C7F67
:101DF000EEDB1E2001900BE01F22B8480178BDF8F1
:101E0000040001F023F8BDF80400401C80B20190EA
:101E1000BDF80400B0F58C7FEEDB1E2001900DE0D4
:101E20004FF47842AD4801783231BDF8040001F03A
:101E30000DF8BDF80400401C80B20190BDF804000C
:101E4000B0F58C7FECDB0120A6490870A348007830
:101E5000A3490978884202DD0020A24908709F4802
:101E60000078F02802D09E48007810B900209D49E3
:101E700008709B48007899490978401A0F2802DABF
:101E80000020984908701CBD00B585B00020049062
:101E90000390029001900090934908804FF4A07045
:101EA000924908800190002000908C4800780490AE
:101EB00052E01E20039045E0BDF81010BDF80C0064
:101EC00001F0C3F80290BDF80800FEF71FFA884839
:101ED0000168884807F074FF2FD28749844800685A
:101EE00007F06EFF29D285480168854807F068FF32
:101EF00023D284498148006807F062FF1DD28248DE
:101F00000168824807F05CFF17D281497E4800686B
:101F100007F056FF11D2BDF80C00BDF8041088423E
:101F200002DABDF80C000190BDF80C00BDF80010FD
:101F3000884202DDBDF80C000090BDF80C00401C8A
:101F400080B20390BDF80C00B0F5917FB4DBBDF812
:101F50001000401C80B20490BDF810006049097860
:101F60008842A6DBBDF804005F490880BDF8000088
:101F7000401F5E4908805948007804900BE0F82221
:101F8000BDF810105848008800F060FFBDF8100040
:101F9000401C80B20490BDF8100051490978884275
:101FA000EDDB4E48007804900CE04FF47842BDF829
:101FB00010104E48008800F049FFBDF81000401C8A
:101FC00080B20490BDF81000454909788842ECDBE6
:101FD00005B000BD1CB500200190009001901AE0F2
:101FE0004C48BDF80410405C30B91F220021BDF8F8
:101FF000040000F02BFF09E04648BDF80420815C96
:102000004FF47842BDF8040000F020FFBDF8040052
:10201000401C80B20190BDF80400B0F5A07FDFDB6A
:102020001CBD00B591B0002010900F900E900D9047
:102030000C900B900A9009900890079006900590DC
:1020400004900390029001900990089007901E2040
:1020500006903C2005901E20049020490978204AD3
:102060001278881800EBD071C1F347010A911E481D
:1020700000880F9089E09DF82810BDF83C0000F022
:10208000E4FF0E90BDF83800C0120D90BDF8380086
:10209000C0F345100C90BDF8380000F01F000B9005
:1020A0009DF834000A286BDD9DF83000192867DDA3
:1020B0009DF82C000F2863DD9DF834001E285FDC9E
:1020C0009DF830003C285BDC9DF82C001E2857DC76
:1020D0009DF8240020E00000420200201A000020A9
:1020E0001900002028000020380000203A000020BD
:1020F0003400002000007A4300003E4330000020FE
:1021000000007042000070412C0000200000C84216
:1021100000003442320300209DF83410884202DA75
:102120009DF8340009909DF820009DF830108842F9
:1021300002DA9DF8300008909DF81C009DF82C10E4
:10214000884202DA9DF82C0007909DF818009DF84F
:102150003410884202DD9DF8340006909DF814008A
:102160009DF83010884202DD9DF8300005909DF802
:1021700010009DF82C10884202DD9DF82C00049080
:10218000BDF83C00401C80B20F90BDF83C00FB49FC
:1021900009888842FFF66FAF9DF824109DF818203B
:1021A000881800EBD071C1F3470103919DF820100E
:1021B0009DF81420881800EBD071C1F347010291FB
:1021C0009DF81C109DF81020881800EBD071C1F309
:1021D0004701019100200F9009E00020E849BDF877
:1021E0003C208854BDF83C00401C80B20F90BDF8E4
:1021F0003C00B0F5A07FF0DBE2480078109053E09F
:10220000E1480088401C80B20F9042E0BDF84010C9
:10221000BDF83C0000F019FF0E90BDF83800C01268
:102220000D90BDF83800C0F345100C90BDF8380093
:1022300000F01F000B909DF834009DF80C108842B0
:102240001BDB9DF830009DF80810884215DB9DF8D7
:102250002C009DF8041088420FDB4FF6FF72BDF88A
:102260004010BDF83C0000F0F1FDC549BDF83C2030
:1022700088180178491C017006E00022BDF8401062
:10228000BDF83C0000F0E2FDBDF83C00401C80B20F
:102290000F90BDF83C00B94909888842B6DBBDF80B
:1022A0004000401C80B21090BDF84000B74909784A
:1022B0008842A5DB11B000BD0EB500200290019050
:1022C0000090029009E00020B149BDF80820885430
:1022D000BDF80800401C80B20290BDF80800F0284C
:1022E000F1DB4FF4A070A84908800020A3490880C2
:1022F000F0234FF4A0720021084600F058FD01229F
:102300001103A44802F0ADF800BF0121A14801F07B
:1023100048FF0128F9D0002220219E4802F0A1F8B0
:10232000012220219B4802F09CF8012202219948B9
:1023300002F097F800BF0121964801F032FF002813
:10234000F9D000BF0121934801F02BFF0128F9D0FB
:10235000002202218F4802F084F801F001F90020E8
:10236000029078E0002001906BE0102089494861DC
:1023700089480068894908801020864908614861B9
:1023800085480068C0B286490880102081490861EC
:10239000834800888149098840EA012081490880F2
:1023A00008460088C012804908707E480088C0F343
:1023B00045107E4908707B48008800F01F007C496A
:1023C0000870794800787B490978884210DD7748A1
:1023D00000787949097888420ADB7548007877499E
:1023E0000978884204DB4FF6FF706E49088002E0EE
:1023F00000206C4908806B48008871490988884230
:1024000006D06349BDF8082088180178491C01707E
:10241000644800886A490880614800885F490988E3
:1024200040EA01205F490880084600886549086045
:10243000C814584948610861BDF80400401C80B2C6
:102440000190BDF80400B0F5A07F8EDBBDF8080058
:10245000401C80B20290BDF80800F02882DBFFF734
:10246000E7FBFFF76AFC58480078012824D10122D5
:102470000421564801F0F5FF642000F082FE00229E
:102480000421524801F0EDFFFFF7FEFC3E480088B2
:102490003A490988884202DD00204B4908703A48D1
:1024A0000088B0F5917F04DC34480088B0F5917F56
:1024B00002DD0020444908704348007801285CD1BF
:1024C000FFF7AFFDFFF786FDFEF76CFA00909DF871
:1024D0000000082802D1FEF74EFF4EE0002000F079
:1024E0008FFC00234D22C821082000F0C2FC0023ED
:1024F0006522C821102000F0BCFC00236122C82105
:10250000182000F0B6FC00237322C821202000F020
:10251000B0FC00237522C821282000F0AAFC00236B
:102520007222C821302000F0A4FC00236522C821BB
:10253000382000F09EFC00234622C821482000F0ED
:1025400098FC00236122C821502000F092FC002357
:102550006922C821582000F08CFC00236C22C8217D
:10256000602000F086FC00236C22C821682000F067
:1025700080FC4FF4FA7000F0EDFD0EBD3A00002033
:10258000320300201A00002038000020190000202B
:102590004202002000100140080801400E00002007
:1025A000100000201200002016000020170000205C
:1025B000180000205C0000205D0000205E0000206C
:1025C000140000200C0C01402800002000140140E1
:1025D0001CB5002001900090019009E00020F44912
:1025E000BDF804208854BDF80400401C80B201905E
:1025F000BDF80400F028F1DB4FF4A070ED4908802D
:102600000020ED490880F0234FF4A0720021084615
:1026100000F0CDFB01221103E84801F022FF00BFCA
:102620000121E64801F0BDFD0128F9D0002220215A
:10263000E24801F016FF01222021E04801F011FFDD
:1026400001220221DD4801F00CFF00BF0121DB481F
:1026500001F0A7FD0028F9D000BF0121D74801F003
:10266000A0FD0128F9D000220221D44801F0F9FE92
:1026700000F076FF0020019078E0002000906BE0F1
:102680001020CE494861CE480068CE49088010200D
:10269000CA4908614861CA480068C0B2CA4908808E
:1026A0001020C6490861C8480088C649098840EA20
:1026B0000120C649088008460088C012C449087035
:1026C000C2480088C0F34510C2490870BF4800885E
:1026D00000F01F00C0490870BD480078BF49097864
:1026E000884210DDBB480078BD49097888420ADB82
:1026F000B9480078BB490978884204DB4FF6FF707F
:10270000B249088002E00020B0490880AF48008844
:10271000B5490988884206D0A549BDF80420881823
:102720000178491C0170A9480088AF490880A64873
:102730000088A449098840EA0120A4490880084685
:102740000088AA490860C8149C4948610861BDF81E
:102750000000401C80B20090BDF80000B0F5A07FE2
:102760008EDBBDF80400401C80B20190BDF804006F
:10277000F02882DBFFF75CFAFFF7DFFA1CBD10B52B
:102780009B48008800F00100002879D0FDF737FD54
:102790009848008842F21071884271D196480078BA
:1027A000A0B14FF400718648083801F0FAFC012806
:1027B0000CD19148C079142805DC8F48C079401CA1
:1027C0008D49C87102E014208B49C8718A48007A8B
:1027D000A8B14FF480617A48083801F0E2FC012882
:1027E0000DD18548C07B142806DC8348C07B401C83
:1027F000C1B28148C17302E014217F48C1737E4891
:10280000007CA8B14FF400616D48083801F0C9FCA4
:1028100001280DD17848C07D142806DC7648C07D9B
:10282000401CC1B27448C17502E014217248C175E0
:102830007148007EA8B14FF480516148083801F01A
:10284000B0FC01280DD16C48C07F142806DC6A4812
:10285000C07F401CC1B26848C17702E014216648BD
:10286000C177654890F8200038B1634890F8270098
:10287000401CC1B2604880F8271000205D490880E4
:102880005C480088401C5B4908805948008820F05B
:1028900001005749088010BD10B50121022002F047
:1028A0008BFB4FF4FA605549888043F2FF10088093
:1028B0000020C88048804E48103803F03FFD0122B8
:1028C00041214B48103804F00DFE012148481038D2
:1028D00004F083FD10BD002400250E20FDF747FC09
:1028E00000F088FC00F0B2F800F02CF900F082FD56
:1028F00000F0A8FD00220821304801F0B2FD00F0F0
:10290000B3FCFFF7C9FF41F61F41C72001F094F85F
:1029100001F0E3F81F2000F073FA39A007F060FB24
:1029200000BF00F05AFF0028FBD0002137A007F0BD
:1029300057FB002000F064FA022418202749087091
:102940003520274908701820264908702EE001F02C
:1029500015F80546C82000F0FDFB3249284607F06F
:1029600025FA02D2FFF7A8FC20E0FFF731FEC4F100
:1029700015020223DC211E2000F042FB002000F0A3
:102980003FFAFEF79CFC0020FEF735FB0120FEF726
:1029900032FB0220FEF72FFB0320FEF72CFB042066
:1029A000FEF729FB41F2883000F0D4FBCFE70000AE
:1029B00042020020380000203A00002000100140B0
:1029C000080801400E000020100000201200002026
:1029D0001600002017000020180000205C000020D6
:1029E0005D0000205E000020140000200C0C01405F
:1029F00010040040A8000020080500203802002034
:102A000057656C65636F6D0D0A00000053656E734A
:102A10006F725F696E6974204F4B212025640A0D27
:102A20000000000000009643064880470648004723
:102A3000FEE7FEE7FEE7FEE7FEE7FEE7FEE7FEE76E
:102A4000FEE7FEE767990008ED00000808B50121E0
:102A5000192002F088FA0121F94801F007FE102040
:102A60008DF8030003208DF802004FF40070ADF8DC
:102A700000006946F34801F0CFFA4FF48060ADF8EA
:102A800000006946EF4801F0C7FA4FF40060ADF866
:102A900000006946EB4801F0BFFA4FF48050ADF8F2
:102AA00000006946E74801F0B7FA4FF48070ADF8CE
:102AB00000006946E34801F0AFFA4FF6FF70ADF849
:102AC00000006946E04801F0A7FA01229102DD48C2
:102AD00001F0C7FC0122D102DA4801F0C2FC012258
:102AE0001103D84801F0BDFC00224FF40071D54815
:102AF00001F0B7FC08BD10B50446D3480C300460A3
:102B00000022C114CF4801F0ACFC0122D102CD4813
:102B100001F0A7FC10BD10B5044600224FF480510F
:102B2000C84801F09EFC2046FFF7E5FF10BD10B538
:102B3000044601221103C34801F093FC2046FFF72D
:102B4000DAFF10BD10B501221102BE4801F089FC68
:102B50000A2000F016FB00224FF48071B94801F002
:102B600080FC0A2000F00DFB01221102B54801F0A3
:102B700078FC0A2000F005FBCF20FFF7CCFF0020F7
:102B8000FFF7D5FFC120FFF7D2FF3020FFF7CFFFBF
:102B9000ED20FFF7C0FF6420FFF7C9FF0320FFF718
:102BA000C6FF1220FFF7C3FF8120FFF7C0FFE82018
:102BB000FFF7B1FF8520FFF7BAFF1020FFF7B7FF3F
:102BC0007A20FFF7B4FFCB20FFF7A5FF3920FFF7EE
:102BD000AEFF2C20FFF7ABFF0020FFF7A8FF34204B
:102BE000FFF7A5FF0220FFF7A2FFF720FFF793FFF3
:102BF0002020FFF79CFFEA20FFF78DFF0020FFF762
:102C000096FF0020FFF793FFC020FFF784FF1B20F3
:102C1000FFF78DFFC120FFF77EFF0120FFF787FF41
:102C2000C520FFF778FF3020FFF781FF3020FFF746
:102C30007EFFC720FFF76FFFB720FFF778FF362032
:102C4000FFF769FF4820FFF772FF3A20FFF763FFA5
:102C50005520FFF76CFFB120FFF75DFF0020FFF765
:102C600066FF1A20FFF763FFB620FFF754FF0A2024
:102C7000FFF75DFFA220FFF75AFFF220FFF74BFF9F
:102C80000020FFF754FF2620FFF745FF0120FFF744
:102C90004EFFE020FFF73FFF0F20FFF748FF2A20FD
:102CA000FFF745FF2820FFF742FF0820FFF73FFF0F
:102CB0000E20FFF73CFF0820FFF739FF5420FFF7F5
:102CC00036FFA920FFF733FF4320FFF730FF0A202C
:102CD000FFF72DFF0F20FFF72AFF0020FFF727FF48
:102CE0000020FFF724FF0020FFF721FF0020FFF75F
:102CF0001EFFE120FFF70FFF0020FFF718FF152050
:102D0000FFF715FF1720FFF712FF0720FFF70FFF50
:102D10001120FFF70CFF0620FFF709FF2B20FFF71C
:102D200006FF5620FFF703FF3C20FFF700FF0520BA
:102D3000FFF7FDFE1020FFF7FAFE0F20FFF7F7FE6A
:102D40003F20FFF7F4FE3F20FFF7F1FE0F20FFF7D3
:102D5000EEFE2B20FFF7DFFE0020FFF7E8FE00204D
:102D6000FFF7E5FE0120FFF7E2FE3F20FFF7DFFE61
:102D70002A20FFF7D0FE0020FFF7D9FE0020FFF742
:102D8000D6FE0020FFF7D3FEEF20FFF7D0FE112084
:102D9000FFF7C1FE782000F0DDF92920FFF7BBFE28
:102DA0003620FFF7B8FE6C20FFF7C1FE10BD2DE9FD
:102DB000F04104460D4616461F462A20FFF7ABFE9B
:102DC0002012FFF7B4FEE0B2FFF7B1FE3012FFF7BA
:102DD000AEFEF0B2FFF7ABFE2B20FFF79CFE2812F1
:102DE000FFF7A5FEE8B2FFF7A2FE3812FFF79FFE3D
:102DF000F8B2FFF79CFE2C20FFF78DFEBDE8F081B6
:102E000070B50646F0234FF4A07200210846FFF784
:102E1000CEFF012211030B4801F023FB00240AE03E
:102E2000002504E03046FFF766FE681C85B2F02DF1
:102E3000F8DB601C84B2B4F5A07FF1DB70BD00004C
:102E40000002300000100140000C014070B5044643
:102E50000D4616462B46224629462046FFF7A7FF79
:102E600001221103B24801F0FCFA3046FFF743FE9D
:102E700070BD2DE9F04706460F4690469A46A8F1E8
:102E8000200000F0FF08BAF1000F26D1002421E055
:102E9000A84800EB081010F80490002516E009F08F
:102EA000010040B13A1991B2721990B24FF6FF7217
:102EB000FFF7CCFF06E03A1991B2721990B20022E6
:102EC000FFF7C4FF4FEA6909681CC5B2082DE6DBAD
:102ED000601CC4B2122CDBDB1DE0002419E0954815
:102EE00000EB081010F8049000250EE009F0010036
:102EF00038B13A1991B2721990B24FF6FF72FFF7DA
:102F0000A5FF4FEA6909681CC5B20A2DEEDB601CFB
:102F1000C4B2142CE3DBF0234FF4A0720021084666
:102F2000FFF745FFBDE8F08710B50246012000E03D
:102F300050430B1EA1F10104E1B2F9D110BD2DE9FE
:102F4000F04104460E46154642F2107095FBF0F033
:102F50003030C7B200233A4631462046FFF789FF9A
:102F60004FF47A7095FBF0F00A2190FBF1F201FB2F
:102F700012003030C7B204F1080188B200233A468B
:102F80003146FFF776FF642095FBF0F00A2190FBB5
:102F9000F1F201FB12003030C7B204F1100188B227
:102FA00000233A463146FFF764FF04F1180188B266
:102FB00000232E223146FFF75CFF0A2095FBF0F03C
:102FC0000A2190FBF1F201FB12003030C7B204F18C
:102FD000200188B200233A463146FFF74AFF0A2013
:102FE00095FBF0F100FB11503030C7B204F128011D
:102FF00088B200233A463146FFF73BFFBDE8F08137
:103000002DE9F0470646894617461D46002418E07C
:10301000281B401EC1B20A20FFF786FFB7FBF0F065
:103020000A21B0FBF1F201FB120808F13001CAB22B
:1030300006EBC40188B200234946FFF71AFF601C63
:10304000C4B2AC42E4DBBDE8F0872DE9F0410446B0
:103050000D46B4F5A07F01DAF02D02DB0020BDE8BB
:10306000F0812B46224629462046FFF7A0FE2E205F
:10307000FFF751FD4FF088302F490860091D0860A7
:103080004FF6FF702C490C31086001228914284842
:1030900001F0E7F900224FF40071254801F0E1F951
:1030A00000224FF48061224801F0DBF9642000F037
:1030B0005DF8012291021E4801F0D3F900224FF47D
:1030C00080611B4801F0CDF9642000F04FF81A48E8
:1030D0000830006886B201229102154801F0C1F95A
:1030E00000224FF48061124801F0BBF91248083009
:1030F00000681FFA80F8012291020D4801F0B1F931
:10310000F7B24FF6FF7000EA07274FF033300A4955
:103110000860091D08604FF6FF7007490C31086010
:10312000F012C002B91240EA411040EAE82096E7E6
:1031300000100140A6A10008000C0140014606E075
:103140004FF4FA7200E0521E002AFCD1491E0029F9
:10315000F6D17047014606E043F6982200E0521E81
:10316000002AFCD1491E0029F6D17047014605E02E
:10317000142200E0521E002AFCD1491E0029F7D17A
:103180007047014642F228324A434FF0E0235A6129
:1031900000229A6101221A6100BF4FF0E0221069FB
:1031A00000F001021AB100F48032002AF5D00022AA
:1031B0004FF0E0231A619A617047014601EBC102AA
:1031C0004FF0E0235A6100229A6101221A6100BF88
:1031D0004FF0E022106900F001021AB100F48032D1
:1031E000002AF5D000224FF0E0231A619A6170475F
:1031F00000BFFEE708B50121102001F0B4FE012157
:10320000202001F0B0FE4FF40050ADF80000102077
:103210008DF8030003208DF802006946084800F08D
:10322000FBFE0420ADF8000010208DF80300032001
:103230008DF802006946034800F0EEFE08BD00006C
:10324000001001400014014070B504460D4600BF57
:103250004021664802F00CFD0028F9D0E1B2634835
:1032600002F027FB204670BD00B585B00121052086
:1032700001F079FE0121880301F075FE18208DF818
:1032800013004FF40070ADF8100003208DF8120009
:1032900004A9574800F0C0FE04208DF81300000276
:1032A000ADF8100004A9524800F0B6FE4FF4E1302A
:1032B00000900020ADF80400ADF80600ADF808005D
:1032C000ADF80C000C20ADF80A006946474801F043
:1032D000C6FF0121454802F006F905B000BD10B552
:1032E000044600BF4021414802F0C2FC0028F9D04A
:1032F000E1B23E4802F0DDFA10BD10B500BF20215A
:103300003A4802F0B5FC0028F9D0384802F0F8FA43
:1033100010BD2DE9F04104460A20B4FBF0F100FB9A
:1033200011456420B4FBF0F100FB11400A21B0FB11
:10333000F1F64FF47A70B4FBF0F100FB1140642118
:10334000B0FBF1F0C7B24FF47A70B4FBF0F000F0CC
:10335000FF0808F13000FFF7C2FF07F13000FFF768
:10336000BEFF06F13000FFF7BAFF05F13000FFF7AE
:10337000B6FF0D20FFF7B3FF0A20FFF7B0FFBDE84F
:10338000F0812DE9F04104460A20B4FBF0F100FB86
:1033900011456420B4FBF0F100FB11400A21B0FBA1
:1033A000F1F64FF47A70B4FBF0F100FB11406421A8
:1033B000B0FBF1F0C7B24FF47A70B4FBF0F000F05C
:1033C000FF0808F13000FFF78AFF07F13000FFF730
:1033D00086FF06F13000FFF782FF05F13000FFF7AE
:1033E0007EFF2020FFF77BFFBDE8F0810038014021
:1033F0000008014008B50121042001F0B4FD482077
:103400008DF8030003208DF802004FF48850ADF8CA
:10341000000069460A4800F0FFFD0121042001F088
:10342000A2FD48208DF8030003208DF802004FF420
:10343000F050ADF800006946014800F0EDFD08BD10
:103440000008014008B50121102001F08CFD012188
:10345000102001F088FD0121102001F084FD0121E0
:10346000102001F080FD0121102001F07CFD0121E0
:10347000102001F078FD0121102001F074FD0121E0
:10348000102001F070FD10208DF8030003208DF84E
:1034900002000220ADF800006946E74800F0BCFDDC
:1034A0000420ADF800006946E34800F0B5FD0820AF
:1034B000ADF800006946E04800F0AEFD1020ADF820
:1034C00000006946DC4800F0A7FD2020ADF80000B0
:1034D0006946D94800F0A0FD4020ADF800006946DB
:1034E000D54800F099FD8020ADF800006946D2482B
:1034F00000F092FD4FF40050ADF800006946CE4850
:1035000000F08AFD0121042001F02DFD48208DF8F6
:1035100003004FF6FF70ADF800006946C74800F0A1
:103520007BFD08BD08B548208DF8030003208DF809
:1035300002008020ADF800006946BF4800F06CFD35
:1035400008BD08B510208DF8030003208DF8020097
:103550008020ADF800006946B74800F05DFD08BD69
:103560000420B54948611020486108614861042081
:10357000086110200861704710B501228021AE4813
:1035800000F06FFF0220FFF7D9FD01224021AA4879
:1035900000F067FF0220FFF7D1FD00228021A6483E
:1035A00000F05FFF0220FFF7C9FD00224021A24882
:1035B00000F057FF0220FFF7C1FD10BD10B500223B
:1035C00080219D4800F04DFF0220FFF7B7FD01224A
:1035D0004021994800F045FF0220FFF7AFFD01228E
:1035E0008021954800F03DFF0220FFF7A7FD10BDA8
:1035F00010B501228021904800F033FF0220FFF730
:103600009DFD012240218C4800F02BFF0220FFF796
:1036100095FD00224021884800F023FF0220FFF79B
:103620008DFD00228021844800F01BFF0220FFF75F
:1036300085FD10BD10B5FFF775FF012280217E4882
:1036400000F00FFF0220FFF779FD012240217A48A8
:1036500000F007FF0220FFF771FD8021764800F09F
:10366000A0FD04460220FFF769FD002240217248B8
:1036700000F0F7FE0220FFF761FDFFF762FF002276
:1036800080216D4800F0EDFE0CB9012010BD002036
:10369000FCE770B5054600241CE005FA04F0C0F311
:1036A000C0128021644800F0DCFE0220FFF746FDD6
:1036B00001224021604800F0D4FE0220FFF73EFDC9
:1036C000002240215C4800F0CCFE0220FFF736FDCE
:1036D000601CC4B2082CE0DB00228021564800F0B8
:1036E000C0FEFFF7A7FF70BD70B50025FFF71AFFFA
:1036F00000241CE0012240214F4800F0B2FE0220CD
:10370000FFF71CFD80214C4800F04BFD10B18020DC
:10371000204105430220FFF711FD002240214648C9
:1037200000F09FFE0220FFF709FD601CC4B2082CC8
:10373000E0DBFFF706FF002280213F4800F091FE0A
:10374000284670BD70B505460C46FFF715FF4220B0
:10375000FFF79FFF18B9FFF731FF002070BD284623
:10376000FFF797FF18B9FFF729FF0020F6E720467B
:10377000FFF78FFF18B9FFF721FF0020EEE7FFF7F3
:103780001DFF0120EAE770B505460C46FFF7F4FE81
:103790004220FFF77EFF18B9FFF710FF002070BD31
:1037A0002846FFF776FF18B9FFF708FF0020F6E775
:1037B000FFF704FFFFF7E0FE4320FFF76AFF18B9A9
:1037C000FFF7FCFE0020EAE7FFF78EFF2070FFF70F
:1037D0000FFFFFF7F3FE0120E1E738B5002480205A
:1037E00000909DF800101220FFF7ACFF08B90020F0
:1037F00038BD69460B20FFF7C6FF08B90020F7E780
:103800009DF80000732811D100240DE00C4A02EB52
:10381000440251780A4A12F81400FFF793FF08B9DE
:103820000020E5E7601CC4B2B82CEFDB002105A046
:1038300006F0D6FB0120DBE7001001400008014044
:1038400096A7000853656E736F725F696E69742086
:103850004F4B212025640A0D0000000000B585B003
:103860000121202001F07FFB0121082001F07BFBDA
:103870004FF40040ADF8040003208DF8060010203E
:103880008DF8070001A9664800F0C6FB4FF4004020
:10389000ADF8040004208DF8070001A9614800F08C
:1038A000BBFB0121C80201F05EFB40F2E730ADF83E
:1038B0000C004720ADF808000020ADF80E00ADF870
:1038C0000A008DF8100002A9574802F037FD0121C7
:1038D000554805F0BFFE01221146534803F002FE91
:1038E00019208DF8000000208DF8010003208DF8CC
:1038F000020001208DF80300684602F048FB002119
:10390000494803F06AFD05B000BD10B501214648E5
:1039100005F0E9FE012808D10121434805F049FFDF
:1039200042480088401C4149088010BD10B5002164
:103930003D4805F096FB00203C49088001213A48AB
:1039400003F04BFD10BD10B50021374803F045FDD5
:1039500010BD10B500BF354800884FF47A7100FBE8
:1039600001F4314805F095FD044400212E4805F08E
:1039700078FB3220FFF7EEFB204610BD2DE9F05F0B
:103980004FF0000A0024A146A34600BF36E04FF4E2
:103990000041234800F00FFD1420FFF7E7FB4FF430
:1039A00000411F4800F032FD00BF4FF480711D48F8
:1039B00000F0F7FB0028F8D0FFF7B8FF00BF4FF486
:1039C0008071184800F0EDFB0128F8D0FFF7BBFF2D
:1039D000FFF7BFFF8246504606F0ABF907460022CC
:1039E000134B06F029F9054606F0C3F9814649460E
:1039F000584606F059F88346601CC4B2052CC6DB55
:103A0000584606F0A3F9074600220A4B06F014F9BF
:103A1000054606F0AEF981464846BDE8F09F000035
:103A2000000C014000100140002C01400802002061
:103A300000004D400000144030B589B005460C46EA
:103A40000121042001F0B8FA0121202001F08BFAB5
:103A50000121080300F00AFE4FF44040ADF82000B9
:103A600018208DF8230003208DF8220008A9F948BA
:103A700000F0D2FAADF81850ADF814400020ADF8BF
:103A80001A00ADF8160005A9F34802F057FC7020A3
:103A9000ADF804000120ADF806000020ADF80C00E0
:103AA00001A9ED4802F0D1FE01A9EB4802F0B2FFF6
:103AB0000821E94804F014FC0821E74804F03CFC24
:103AC0000121E54803F089FC09B030BD10B54FF481
:103AD0006171E14805F09FFB10BD10B5B421DE48CF
:103AE00005F099FB10BD70B505460C46DB4928462C
:103AF00006F05CF907D2012C02D1FFF7E7FF04E0E2
:103B0000FFF7EBFF01E0FFF7E8FF70BD10B50446DB
:103B1000002C54D1002347220A212320FFF7A9F9C2
:103B200000236F220A212B20FFF7A3F90023202274
:103B30000A213320FFF79DF9002374220A213B203C
:103B4000FFF797F900236F220A214320FFF791F92D
:103B5000002320220A214B20FFF78BF9002341226A
:103B60000A215320FFF785F9002331220A215B2027
:103B7000FFF77FF9002320220A216320FFF779F95C
:103B8000002347220A216B20FFF773F9002331221B
:103B90000A217320FFF76DF9002330220A217B20D0
:103BA000FFF767F9002330220A218320FFF761F92C
:103BB00000234C220A218B20FFF75BF948E1012CFE
:103BC00054D1002347220A212320FFF752F9002372
:103BD0006F220A212B20FFF74CF9002320220A2113
:103BE0003320FFF746F9002374220A213B20FFF718
:103BF00040F900236F220A214320FFF73AF90023FE
:103C000020220A214B20FFF734F9002341220A2108
:103C10005320FFF72EF9002332220A215B20FFF701
:103C200028F9002320220A216320FFF722F900232C
:103C300047220A216B20FFF71CF9002331220A21B9
:103C40007320FFF716F9002330220A217B20FFF7AB
:103C500010F9002330220A218320FFF70AF90023FC
:103C60004C220A218B20FFF704F9F1E0022C54D1F9
:103C7000002347220A212320FFF7FBF800236F22AD
:103C80000A212B20FFF7F5F8002320220A213320F8
:103C9000FFF7EFF8002374220A213B20FFF7E9F831
:103CA00000236F220A214320FFF7E3F8002320229C
:103CB0000A214B20FFF7DDF8002342220A2153207E
:103CC000FFF7D7F8002331220A215B20FFF7D1F854
:103CD000002320220A216320FFF7CBF8002347228C
:103CE0000A216B20FFF7C5F8002320220A21732048
:103CF000FFF7BFF8002339220A217B20FFF7B9F82C
:103D0000002330220A218320FFF7B3F80023522238
:103D10000A218B20FFF7ADF89AE0032C54D1002341
:103D200047220A212320FFF7A4F800236F220A214B
:103D30002B20FFF79EF8002320220A213320FFF7D3
:103D400098F8002374220A213B20FFF792F8002301
:103D50006F220A214320FFF78CF8002320220A213A
:103D60004B20FFF786F8002342220A215320FFF759
:103D700080F8002332220A215B20FFF77AF8002323
:103D800020220A216320FFF774F8002347220A212A
:103D90006B20FFF76EF8002331220A217320FFF712
:103DA00068F8002330220A217B20FFF762F8002305
:103DB00030220A218320FFF75CF8002352220A21D7
:103DC0008B20FFF756F843E0042C41D100234E220C
:103DD0000A212320FFF74DF800236F220A212B2010
:103DE000FFF747F8002320220A213320FFF741F88C
:103DF000002343220A213B20FFF73BF800236822DF
:103E00000A214320FFF735F8002365220A214B20C1
:103E1000FFF72FF8002320220A215320FFF729F86B
:103E2000002357220A215B20FFF723F80023652295
:103E30000A216320FFF71DF8002369220A216B2065
:103E4000FFF717F8002320220A217320FFF711F84B
:103E500010BD00000014014000080040000048426E
:103E6000014609B920A07047012901D120A0FAE735
:103E7000022901D120A0F6E7032901D120A0F2E711
:103E800021A0F0E72DE9FC414FF48051204800F0DB
:103E900088F904464FF400611D4800F082F9054698
:103EA0004FF480611A4800F07CF906464FF4007127
:103EB000174800F076F9074633463A4615A11848E8
:103EC000CDE9005406F09CF81548BDE8FC8130B5FA
:103ED000024600E05B1C12F8014B11F8015BAC429A
:103EE000F8D0581C30BD00003030303000000000E9
:103EF000303030310000000030303131000000003F
:103F0000303131310000000031313131000000002A
:103F10000008014025642564256425640000000034
:103F20003005002010B50446FC48844211D0FC48FE
:103F300084420ED0FB4884420BD0FB48844208D018
:103F4000FA48844205D0FA48844202D0F9488442B3
:103F500000D103E06F21F8A0FFF74AF9EF4884424F
:103F600008D10121042001F050F80021042001F0C3
:103F70004CF846E0EA48844208D10121082001F0CB
:103F800044F80021082001F040F83AE0E548844276
:103F900008D10121102001F038F80021102001F093
:103FA00034F82EE0E048844208D10121202001F0BD
:103FB0002CF80021202001F028F822E0DB48844280
:103FC00008D10121402001F020F80021402001F01B
:103FD0001CF816E0D648844208D10121802001F067
:103FE00014F80021802001F010F80AE0D148844242
:103FF00007D10121801501F008F80021A01501F07A
:1040000004F810BD10B50121084600F0FEFF0021A4
:10401000012000F0FAFF10BD2DE9F05F05460C46C7
:104020004FF00009CA4600260027B046B346BB48F9
:10403000854211D0BA4885420ED0BA4885420BD08D
:10404000B948854208D0B948854205D0B84885426C
:1040500002D0B848854200D103E0B221B6A0FFF7F4
:10406000C7F8E078A0B1E078042811D0E0782828DB
:104070000ED0E07848280BD0E078142808D0E078FB
:10408000102805D0E0781C2802D0E078182800D14C
:1040900003E0B321A8A0FFF7ABF8002010B92088F7
:1040A00000B103E0B421A4A0FFF7A2F8E07800F08B
:1040B0000F09E07800F0100080B1A078012805D049
:1040C000A078022802D0A078032800D103E0BB2109
:1040D00099A0FFF78DF8A07840EA0909207838B355
:1040E000D5F8008000261FE0012000FA06F720889E
:1040F00000EA070ABA4516D1B7000F2000FA07FBFD
:1041000028EA0B0809FA07F040EA0808E0782828AE
:1041100003D10120B040686105E0E078482802D171
:104120000120B0402861761C082EDDD3C5F8008040
:104130002088FF282BDDD5F80480002623E006F137
:104140000800012101FA00F7208800EA070ABA45B1
:1041500018D1B7000F2000FA07FB28EA0B0809FA6C
:1041600007F040EA0808E078282803D106F10800A3
:1041700081406961E078482804D106F108000121F6
:1041800081402961761C082ED9D3C5F80480BDE88A
:10419000F09F4FF6FF710180022181700421C170F0
:1041A000704770B505460C4600265C48854211D024
:1041B0005B4885420ED05B4885420BD05A48854209
:1041C00008D05A48854205D05948854202D05948FE
:1041D000854200D104E04FF48F7157A0FFF708F833
:1041E000012C25D0022C23D0042C21D0082C1FD048
:1041F000102C1DD0202C1BD0402C19D0802C17D077
:10420000B4F5807F14D0B4F5007F11D0B4F5806F81
:104210000ED0B4F5006F0BD0B4F5805F08D0B4F5C4
:10422000005F05D0B4F5804F02D0B4F5004F00D147
:1042300004E040F21F1140A0FEF7DAFFA86820401A
:1042400008B1012600E00026304670BD10B50446D6
:104250003248844211D0324884420ED031488442E0
:104260000BD03148844208D03048844205D03048D1
:10427000844202D02F48844200D104E04FF49A7166
:104280002DA0FEF7B5FFA06880B210BD70B5054641
:104290000C4600262148854211D0214885420ED087
:1042A000204885420BD02048854208D01F488542CF
:1042B00005D01F48854202D01E48854200D104E047
:1042C0004FF4A2711CA0FEF793FF012C25D0022C05
:1042D00023D0042C21D0082C1FD0102C1DD0202C32
:1042E0001BD0402C19D0802C17D0B4F5807F14D06F
:1042F000B4F5007F11D0B4F5806F0ED0B4F5006F27
:104300000BD0B4F5805F08D0B4F5005F05D0B4F5EC
:10431000804F02D0B4F5004F1ED123E000080140C9
:10432000000C014000100140001401400018014041
:10433000001C0140002001402E2E5C4C696272611D
:1043400072795C7372635C73746D3332663130788A
:104350005F6770696F2E630040F24511AFF228006D
:10436000FEF746FFE868204008B1012600E000267D
:10437000304670BD10B50446FE48844211D0FE4858
:1043800084420ED0FD4884420BD0FD48844208D0C0
:10439000FC48844205D0FC48844202D0FB48844259
:1043A00000D105E04FF4AD71AFF27400FEF720FFCD
:1043B000E06880B210BD70B504460D46ED488442F9
:1043C00011D0ED4884420ED0EC4884420BD0EC482A
:1043D000844208D0EB48844205D0EB48844202D0A6
:1043E000EA48844200D105E040F26911AFF2B8001A
:1043F000FEF7FEFE002008B905B105E04FF4B571E7
:10440000AFF2CC00FEF7F4FE256170BD70B5044636
:104410000D46D848844211D0D74884420ED0D748A0
:1044200084420BD0D648844208D0D648844205D076
:10443000D548844202D0D548844200D105E040F2FC
:104440007911AFF20C10FEF7D3FE002008B905B1C8
:1044500005E04FF4BD71AFF22010FEF7C9FE6561B3
:1044600070BD70B505460C461646C248854211D04F
:10447000C14885420ED0C14885420BD0C048854214
:1044800008D0C048854205D0BF48854202D0BF4809
:10449000854200D105E040F28D11AFF26410FEF7C5
:1044A000A7FE012C25D0022C23D0042C21D0082CCF
:1044B0001FD0102C1DD0202C1BD0402C19D0802CAC
:1044C00017D0B4F5807F14D0B4F5007F11D0B4F5C7
:1044D000806F0ED0B4F5006F0BD0B4F5805F08D0BC
:1044E000B4F5005F05D0B4F5804F02D0B4F5004FAD
:1044F00000D105E04FF4C771AFF2C410FEF778FEAB
:104500000EB1012E00D105E040F28F11AFF2D810AC
:10451000FEF76EFE0EB12C6100E06C6170BD70B5EF
:1045200004460D469348844211D0934884420ED0ED
:10453000924884420BD09248844208D091488442E9
:1045400005D09148844202D09048844200D105E0D1
:104550004FF4D271AFF22020FEF74AFEE56070BD45
:1045600070B504460D464FF480368248844211D01F
:10457000814884420ED0814884420BD080488442D6
:1045800008D08048844205D07F48844202D07F48CA
:10459000844200D105E040F2B511AFF26420FEF78D
:1045A00027FE002008B905B105E04FF4DB71AFF23A
:1045B0007820FEF71DFE2E43A661A561A661A669BF
:1045C000A66970BD70B505460C4600263DB1012DAB
:1045D00005D0022D03D0032D01D0042D00D105E01C
:1045E0004FF4E971AFF2B020FEF702FEECB1012CFE
:1045F0001BD0022C19D0032C17D0042C15D0052C5D
:1046000013D0062C11D0072C0FD0082C0DD0092C5C
:104610000BD00A2C09D00B2C07D00C2C05D00D2C5C
:1046200003D00E2C01D00F2C00D105E040F2D311A5
:10463000AFF2FC20FEF7DCFD554806684FF68070AF
:10464000064046EA051626435148066070BD10B57F
:1046500004460CB1012C00D105E04FF4F371AFF228
:104660002830FEF7C5FD4B48C46110BD2DE9F04769
:1046700004460E460027B8460025A946012C77D0EF
:10468000022C75D0042C73D0082C71D0424884427F
:104690006ED04148203084426AD04048844267D07E
:1046A0003E488030844263D03D48844260D03D48DB
:1046B00084425DD03C4884425AD03C48844257D022
:1046C0003B48844254D0B4F5805F51D0B4F5EA1F22
:1046D0004ED0B4F5EB1F4BD0B4F5004F48D0354861
:1046E000844245D0401C844242D0801C84427FD00A
:1046F000001D84427CD02F480F30844278D0B4F122
:10470000201F75D04FEAF030844271D02A4884428D
:104710006ED02A4884426BD02948844268D0294808
:10472000844265D02848844262D0B4F5011F5FD02E
:10473000264884425CD0401C844259D0801C84426C
:1047400056D0001D844253D020480F3084424FD0B1
:104750001E481F3084424BD01C483F30844247D013
:104760001A487F30844243D01848FF3084422FE0FB
:104770003EE0000000080140000C01400010014034
:104780000014014000180140001C014000200140BD
:1047900000000140000020421000140040001600FC
:1047A00000011800000218000003180000081A0099
:1047B000000C1A000100200000013000000230004F
:1047C00000043000001120000020200001000080C3
:1047D0000ED0664884420BD06548844208D06548B4
:1047E000844205D06448844202D06448844200D1A7
:1047F00005E040F22A21AFF2C040FEF7F9FC0EB10D
:10480000012E00D105E040F22B21AFF2D440FEF79B
:10481000EFFC04F00040B0F1004F02D15848C569E8
:1048200001E057484568C4F30349A7B204F44010B7
:10483000B0F5401F08D125F070655148406820F060
:1048400070604F49486013E004F48010B0F5801F99
:1048500007D1032000FA09F825EA080545F070653C
:1048600006E0600D000107FA00F0854345F0706531
:1048700026B1600D010107FA01F0054304F0004084
:10488000B0F1004F02D13E48C56101E03C484560AF
:10489000BDE8F08770B505460C4600265DB1012DD8
:1048A00009D0022D07D0032D05D0042D03D0052DEE
:1048B00001D0062D00D105E040F26521AFF288500D
:1048C000FEF796FCECB1012C1BD0022C19D0032C66
:1048D00017D0042C15D0052C13D0062C11D0072C82
:1048E0000FD0082C0DD0092C0BD00A2C09D00B2C82
:1048F00007D00C2C05D00D2C03D00E2C01D00F2C82
:1049000000D105E040F26621AFF2D450FEF770FC12
:10491000A007010F0F2000FA01F619480830A11076
:1049200050F82100B04316490831A21041F8220086
:104930000846A11050F82100A107090F05FA01F15E
:1049400008430F490831A21041F8220070BD10B58C
:1049500004460CB1012C00D105E04FF41E71AFF2FA
:104960002860FEF745FC0748046010BD0002008087
:1049700000040080000800800010008000200080FB
:1049800000000140DC002042FE48006840F00100C9
:10499000FC49086008464068FB490840F9494860FE
:1049A00008460068F9490840F6490860084600686A
:1049B00020F4802008600846406820F4FE0048602B
:1049C0004FF41F008860704710B504462CB1B4F551
:1049D000803F02D0B4F5802F00D104E040F21111E5
:1049E000EBA0FEF705FCE748006820F48030E549BD
:1049F00008600846006820F480200860B4F5803F15
:104A000003D0B4F5802F0ED106E0DE48006840F4F4
:104A10008030DC49086007E0DA48006840F4A020F4
:104A2000D849086000E000BF00BF10BD2DE9F0418B
:104A30000446002500260027212C13D0312C11D04C
:104A4000392C0FD0412C0DD0612C0BD07A2C09D0F1
:104A50007B2C07D07C2C05D07D2C03D07E2C01D064
:104A60007F2C00D104E040F23451C9A0FEF7C0FB16
:104A70006511012D02D1C348066806E0022D02D15E
:104A8000C048066A01E0BF48466A04F01F050120DD
:104A9000A840304008B1012700E000273846BDE8B3
:104AA000F08138B5002000900024002500BF31209F
:104AB000FFF7BCFF05460098401C00900098B0F539
:104AC000A06F01D0002DF2D03120FFF7AFFF08B169
:104AD000012400E00024204638BD70B504460025BE
:104AE0001F2C00DC04E04FF4A971A9A0FEF780FBA5
:104AF000A448056825F0F80545EAC405056070BDC1
:104B000010B504460CB1012C00D104E040F265114F
:104B10009FA0FEF76DFBA648046010BD70B505466A
:104B20000C4600262DB1B5F5803F02D0B5F5403FCB
:104B300000D104E040F27F1195A0FEF759FB4CB381
:104B4000B4F5802F26D0B4F5002F23D0B4F5402F34
:104B500020D0B4F5801F1DD0B4F5A01F1AD0B4F535
:104B6000C01F17D0B4F5E01F14D0B4F5001F11D04A
:104B7000B4F5101F0ED0B4F5201F0BD0B4F5301FC4
:104B800008D0B4F5401F05D0B4F5501F02D0B4F5DD
:104B9000601F00D104E04FF4C0717DA0FEF728FB38
:104BA0007848466826F47C1645EA040006437548B2
:104BB000466070BD10B504460CB1012C00D104E074
:104BC0004FF4CA7172A0FEF713FB7948046610BD5A
:104BD00070B5044600251CB1012C01D0022C00D177
:104BE00004E04FF40E716AA0FEF702FB65484568C9
:104BF00025F003052543456070BD6248406800F01C
:104C00000C00704770B5044600257CB1802C0DD097
:104C1000902C0BD0A02C09D0B02C07D0C02C05D0E4
:104C2000D02C03D0E02C01D0F02C00D104E04FF4C4
:104C3000197157A0FEF7DCFA5248456825F0F005D7
:104C40002543456070BD70B5044600255CB1B4F5E0
:104C5000806F08D0B4F5A06F05D0B4F5C06F02D056
:104C6000B4F5E06F00D104E040F27E2148A0FEF7E9
:104C7000BFFA4448456825F4E0652543456070BDAA
:104C800070B5044600255CB1B4F5806F08D0B4F56A
:104C9000A06F05D0B4F5C06F02D0B4F5E06F00D1BD
:104CA00004E04FF426713AA0FEF7A2FA35484568B1
:104CB00025F4605545EAC405456070BD70B50446ED
:104CC0000D4604F0E00008B904B104E040F2BF2151
:104CD0002FA0FEF78DFA0DB1012D00D104E04FF4A5
:104CE00030712BA0FEF784FA2DB12648407A20437C
:104CF0002449487204E02348407AA043214948727D
:104D000070BD10B504460CB1012C00D104E040F296
:104D1000DB211FA0FEF76CFA2548D830046010BDD7
:104D200070B50446002544B1B4F5804F05D0B4F504
:104D3000004F02D0B4F5404F00D104E040F2023100
:104D400013A0FEF755FA0F48456825F44045254362
:104D5000456070BD10B504461CB1012C01D0042C77
:104D600000D104E04FF4507109A0FEF741FA002091
:104D7000044920310870034981F82000012C1BD020
:104D8000042C17E0001002400000FFF8FFFFF6FEC1
:104D90002E2E5C4C6962726172795C7372635C7313
:104DA000746D3332663130785F7263632E63000056
:104DB0000000424208D103E00120F449087004E0F9
:104DC0000520F249087000E000BF00BF10BD10B51B
:104DD00004460CB1012C00D105E040F26131AFF284
:104DE0005000FEF705FAEA48046010BD10B504460D
:104DF000B4F5807F05D0B4F5007F02D0B4F5407FD4
:104E000000D105E040F27231AFF27C00FEF7F0F91C
:104E1000DE482038006A2043DC492039086210BD92
:104E200010B504460CB1012C00D105E04FF46071BF
:104E3000AFF2A400FEF7DCF9D5484438046010BD99
:104E400030B50021002200240023D04D203D6D68A4
:104E500005F00C0121B1042905D0082926D105E06F
:104E6000CC4D056025E0CB4D056022E0C74D203DCF
:104E70006D6805F47012C54D203D6D6805F48034F1
:104E8000022505EB92421CB9C34D554305600CE069
:104E9000BE4D203D6D6805F400351DB1BE4D554336
:104EA000056002E0BB4D5543056002E0B94D056069
:104EB00000BF00BFB54D203D6D6805F0F001090948
:104EC000B64D6B5C0568DD404560B04D203D6D68BA
:104ED00005F4E061090AB14D6B5C4568DD40856011
:104EE000AA4D203D6D6805F46051C90AAB4D6B5C5D
:104EF0004568DD40C560A54D203D6D6805F4404125
:104F0000890BA74D6B5CC568B5FBF3F5056130BD3A
:104F100070B504460D4640F2575024EA000008B927
:104F200004B105E040F22B41AFF29C10FEF760F9AE
:104F30000DB1012D00D105E040F22C41AFF2B010CF
:104F4000FEF756F93DB191482038406920438F491A
:104F50002039486106E08D4820384069A0438B49DC
:104F60002039486170BD70B504460D468D4820401B
:104F700008B904B105E040F24A41AFF2EC10FEF787
:104F800037F90DB1012D00D105E040F24B41AFF2F0
:104F90000020FEF72DF93DB17C4820388069204380
:104FA0007A492039886106E0784820388069A04332
:104FB00076492039886170BD70B504460D467A483F
:104FC000204008B904B105E040F26941AFF2402049
:104FD000FEF70EF90DB1012D00D105E040F26A4156
:104FE000AFF25420FEF704F93DB168482038C0699B
:104FF000204366492039C86106E064482038C0690A
:10500000A04362492039C86170BD70B504460D46A1
:105010006448204008B904B105E040F2A441AFF271
:105020009020FEF7E5F80DB1012D00D105E040F22A
:10503000A541AFF2A420FEF7DBF83DB1534820387C
:10504000C068204351492039C86006E04F482038E5
:10505000C068A0434D492039C86070BD70B5044692
:105060000D465148204008B904B105E040F2C34163
:10507000AFF2E420FEF7BCF80DB1012D00D105E040
:1050800040F2C441AFF2F820FEF7B2F83DB13F481C
:105090002038006920433D492039086106E03B483B
:1050A00020380069A04339492039086170BD10B526
:1050B00004460CB1012C00D105E04FF49B61AFF226
:1050C0003030FEF795F832484038046010BD10B516
:1050D00004460CB1012C00D105E040F2E541AFF2ED
:1050E0005030FEF785F83148C46410BD10B5044651
:1050F0003CB1052C05D0042C03D0062C01D0072C84
:1051000000D105E040F20551AFF27C30FEF770F8B7
:105110001E482038C47110BD1C482038406A40F039
:1051200080701A4920394862704770B504460025DE
:10513000012C09D0022C07D0042C05D0082C03D058
:10514000102C01D0802C00D105E040F27E51AFF24E
:10515000C030FEF74DF80D4820388068204008B177
:10516000012500E00025284670BD10B5044604F076
:10517000600008B904B105E040F2AB51AFF2F03085
:10518000FEF736F801482038847210BD2010024026
:105190008004424200127A0000093D000A02002009
:1051A0001A0200200200C0FF0036018100004242C6
:1051B00010B50446FE4884420BD0FE48844208D015
:1051C000FD48844205D0FD48844202D0FC48844218
:1051D00000D103E08521FBA0FEF70AF8F4488442E1
:1051E00009D101218803FFF710FF00214FF480400F
:1051F000FFF70BFF32E0EF48844209D10121480458
:10520000FFF72CFF00214FF40030FFF727FF25E0C8
:10521000E948844209D101218804FFF71FFF0021DA
:105220004FF48020FFF71AFF18E0E448844209D1C8
:105230000121C804FFF712FF00214FF40020FFF7FF
:105240000DFF0BE0DE48844208D101210805FFF77D
:1052500005FF00214FF48010FFF700FF10BD2DE97E
:10526000F04786B005460C460026B24600BFB14660
:105270000027CF4885420BD0CE48854208D0CE4883
:10528000854205D0CD48854202D0CD48854200D127
:1052900003E0B821CBA0FDF7ABFF206820B1D249D5
:1052A0002068884200D203E0B921C6A0FDF7A0FF24
:1052B000A08818B1A088B0F5805F00D103E0BA21C2
:1052C000C0A0FDF795FFE08858B1E088B0F5805F99
:1052D00007D0E088B0F5005F03D0E088B0F5405F0C
:1052E00000D103E0BB21B7A0FDF782FF208938B1D0
:1052F0002089B0F5806F03D02089B0F5C06F00D150
:1053000003E0BC21AFA0FDF773FF60894FF6F37196
:10531000084010B9608900B103E0BD21A9A0FDF7E4
:1053200067FFA08958B1A089B0F5807F07D0A08918
:10533000B0F5007F03D0A089B0F5407F00D103E035
:10534000BE21A0A0FDF754FFA08968B1984885420E
:1053500005D09848854202D09748854200D103E0A5
:10536000C22198A0FDF744FF2F462E8A4CF6FF700D
:105370000640E08806432E82AE894EF6F3100640C2
:10538000A08821890843618908430643AE81AE8A1B
:105390004FF6FF400640A0890643AE8201A8FFF702
:1053A0004FFD8348874202D1DDF810A001E0DDF80F
:1053B0000CA0A88900F4004040B10AEBCA0000EB41
:1053C0000A1021684900B0FBF1F807E00AEBCA00B7
:1053D00000EB0A1021688900B0FBF1F86420B8FBEB
:1053E000F0F006013009642101FB1089A88900F45E
:1053F000004040B1322000EBC900B0FBF1F000F0FA
:105400000700064308E0322000EB09106421B0FBDE
:10541000F1F000F00F0006432E8106B0BDE8F087E2
:105420004FF41651016000218180C18001810C215F
:10543000418100218181704770B505460C460026E8
:105440005B48854205D05B48854202D05A48854278
:1054500000D104E04FF499715AA0FDF7C9FE2088ED
:1054600018B12088B0F5006F00D104E040F233118C
:1054700054A0FDF7BDFE608818B16088B0F5806F5C
:1054800000D104E04FF49A714EA0FDF7B1FEA08860
:1054900018B1A088B0F5007F00D104E040F23511CA
:1054A00048A0FDF7A5FEE08818B1E088B0F5807F40
:1054B00000D104E04FF49B7142A0FDF799FE2E8AC3
:1054C0004FF2FF000640208861880843A188084306
:1054D000E188084306432E8270BD0021018041808F
:1054E0008180C180704770B504460D4630488442C3
:1054F0000BD03048844208D02F48844205D02F4832
:10550000844202D02E48844200D104E04FF4B171AD
:105510002CA0FDF76DFE0DB1012D00D104E040F28D
:10552000631128A0FDF764FE25B1A08940F4005066
:10553000A08104E0A0894DF6FF710840A08170BDF4
:105540002DE9F04705460C4617464FF00008C246C5
:10555000C1460026164885420BD01648854208D021
:105560001548854205D01548854202D01448854229
:1055700000D104E040F2891112A0FDF739FE282C79
:1055800038D040F22770844234D040F22660844202
:1055900030D040F2255084422CD040F22440844246
:1055A00028D040F64600844224D040F66A101DE020
:1055B000003801400044004000480040004C0040DA
:1055C000005000402E2E5C4C6962726172795C73EF
:1055D00072635C73746D3332663130785F757361FA
:1055E00072742E630000000021AA4400844201D09E
:1055F000602C00D105E04FF4C571AFF23800FDF723
:10560000F7FD0FB1012F00D105E040F28B11AFF291
:105610004C00FDF7EDFD40F66A1084420FD1F948C9
:10562000854205D0F848854202D0F848854200D12D
:1056300005E040F28F11AFF27400FDF7D9FD2E4660
:10564000C4F3421804F01F0A012000FA0AF9B8F165
:10565000010F01D10C3605E0B8F1020F01D110366F
:1056600000E0143627B1306840EA0900306003E0FA
:10567000306820EA09003060BDE8F08770B5044664
:105680000D461646DF4884420BD0DF48844208D0DE
:10569000DE48844205D0DE48844202D0DD488442A0
:1056A00000D105E040F2C311AFF2E800FDF7A0FD24
:1056B0004FF63F70284008B905B105E04FF4E2719C
:1056C000AFF20010FDF794FD0EB1012E00D105E000
:1056D00040F2C511AFF21410FDF78AFD1EB1A08A89
:1056E0002843A08202E0A08AA843A08270BD70B5C2
:1056F00004460D46C34884420BD0C348844208D0B8
:10570000C248844205D0C248844202D0C148844283
:1057100000D105E040F2DF11AFF25810FDF768FD4F
:105720000F2D00DC05E04FF4F071AFF26810FDF7CB
:105730005FFD208A4FF6F07108402082208A2843BE
:10574000208270BD70B504460D46AE4884420BD031
:10575000AD48844208D0AD48844205D0AC4884426C
:1057600002D0AC48844200D105E04FF4FB71AFF2A7
:10577000AC10FDF73DFD15B1B5F5006F00D105E0AA
:1057800040F2F711AFF2C410FDF732FDA0894FF2DD
:10579000FF710840A081A0892843A08170BD70B529
:1057A00004460D46974884420BD09748844208D05F
:1057B0009648844205D09648844202D09548844257
:1057C00000D105E040F20921AFF20820FDF710FDFD
:1057D0000DB1012D00D105E040F20A21AFF21C20ED
:1057E000FDF706FD25B1A08940F00200A08104E08C
:1057F000A0894FF6FD710840A08170BD70B50446C8
:105800000D46804884420BD07F48844208D07F48B0
:10581000844205D07E48844202D07E48844200D132
:1058200005E040F22621AFF26420FDF7E1FC0DB166
:10583000202D00D105E040F22721AFF27820FDF7BE
:10584000D7FC208A4FF6DF7108402082208A284347
:10585000208270BD70B504460D466A4884420BD064
:105860006948844208D06948844205D06848844227
:1058700002D06848844200D105E040F23921AFF2FD
:10588000BC20FDF7B5FC0DB1012D00D105E040F2C3
:105890003A21AFF2D020FDF7ABFC25B1208A40F4CD
:1058A0008040208204E0208A4BF6FF71084020826D
:1058B00070BD70B504460D46524884420BD0524824
:1058C000844208D05148844205D05148844202D0D5
:1058D0005048844200D105E040F25321AFF21C3021
:1058E000FDF786FCB5F5007F00DA05E04FF4157191
:1058F000AFF23030FDF77CFCC5F30800A08070BD2E
:1059000010B504463F4884420BD03F48844208D03B
:105910003E48844205D03E48844202D03D488442FD
:1059200000D105E04FF41971AFF26830FDF760FC6B
:10593000A088C0F3080010BD10B504463148844269
:105940000BD03148844208D03048844205D03048DA
:10595000844202D02F48844200D105E04FF41D71EB
:10596000AFF2A030FDF744FCA08940F00100A08117
:1059700010BD70B504460D462248844205D0224829
:10598000844202D02148844200D105E04FF42171C5
:10599000AFF2D030FDF72CFC208BC0B22083208BDF
:1059A00040EA0520208370BD70B504460D461548B9
:1059B00084420BD01448844208D01448844205D055
:1059C0001348844202D01348844200D105E04FF4CA
:1059D0002671AFF21040FDF70BFC208B00F47F40E6
:1059E0002083208B2843208370BD70B504460D466C
:1059F0000448844205D00448844202D003488442CB
:105A00000AD10FE000380140004400400048004047
:105A1000004C00400050004040F2AB21AFF25C402F
:105A2000FDF7E6FB0DB1012D00D105E04FF42B7120
:105A3000AFF27040FDF7DCFB25B1A08A40F02000FA
:105A4000A08204E0A08A4FF6DF710840A08270BDFA
:105A500070B504460D46F948844205D0F8488442A2
:105A600002D0F848844200D105E04FF43171AFF222
:105A7000AC40FDF7BDFB0DB1012D00D105E040F2BA
:105A8000C521AFF2C040FDF7B3FB25B1A08A40F0BD
:105A90001000A08204E0A08A4FF6EF710840A082B7
:105AA00070BD70B504460D46E44884420BD0E4480E
:105AB000844208D0E348844205D0E348844202D0BF
:105AC000E248844200D105E040F2DE21AFF20C5002
:105AD000FDF78EFB0DB1012D00D105E040F2DF2175
