:10040D00543A30302E3027430050483A30302E3099
:0A041D00205444533A3030303000D0
:0F0324008F807F027E00120333D2A77F027E00FC
:10033300D3EF9400EE940040147D717C00ED1D70AA
:0D034300011CED4C70F7EF1F70E61E80E30B
:01035000228A
:0804AD00C2A6120324C2A7221B
:0804B500D2A6120324C2A72203
:0A049900AB051204ADAF030204B579
:040427008F1DA90577
:10042B007F017E00AD0119ED6009AD1D7C0012004E
:03043B003080F11D
:01043E00229B
:0801E9008F188C198D1A8B1B75
:1001F100E4F51CFAEAC3951B504AC3E51B9A14FDAA
:100201007F0A120427AC19AD1ACFCDCFCECCCE12B6
:1002110000427C007D0A120042A905E51C7017E529
:100221001B14FFEAC39F500EE97008E5182AFF7DF1
:1002310030800B751C01E5182AFFE92430FD1204FA
:04024100990A80B0E6
:010245002296
:08037B008F188B198A1A891BE7
:10038300E4F51CAB19AA1AA91B851C8275830012FC
:100393000003FD600BAF181204990518051C80E3D8
:0103A3002237
:1002EC00C2A77F381204AD7F0C1204AD7F06120436
:1002FC00AD7F011204AD7F801204AD7BFF7A0479CF
:10030C000D7F8012037B7DDF7F861204997BFF7A41
:08031C000479167FC002037B87
:1002A100E513FD7C007B027F821201E9E50CFD7CF8
:1002B100007B017F851201E9AE20AF217C007D0A20
:1002C100120042AC06AD077B027FC31201E9AE20EA
:1002D100AF217C007D0A1200427B017FC61201E939
:0B02E1007B04AD1FAC1E7FCC0201E9C6
:0804570002200000021E00005B
:0D048C007580FF7590FF75A0FF75B0FF2211
:10018700E4F516F51712048C1202EC120469AF227B
:10019700120246EFC313752000F521AF2312024662
:1001A700EF75F004A485F01EF51FC3E51E940450F7
:1001B7000EC3E4951FF51F7404951EF51E8005E414
:1001C700F51EF51F0517E51770020516C39464E5BC
:1001D70016940040B9E4F516F5171203A41202A10C
:0201E70080ACEA
:10047B00000101020203030404050506070808092D
:01048B000967
:03045F00010D1E6E
:0A04A300EFD3940040031F80F722FE
:10043F00D2A07F011204A3C2A07F3C1204A3D2A0BA
:08044F0020A0FD7F2D0204A393
:0203CB00AE077B
:1003CD007D08D2A00000C2A00000000000EE139234
:1003DD00A07F061204A3EEC313FEDDE6D2A07F01BB
:0303ED000204A364
:10035100E4FE7D08D2A00000EEC313FEC2A000009F
:100361000000D2A00000000030A0034306807F06F9
:090371001204A3DDDFD2A0AF06E7
:01037A002260
:1003F00012043F7F021204A37FCC1203CB7FBE12F4
:0D04000003CB1203518F081203518F092204
:10012300E509D3947F400CE509F404F509E508F4E7
:1001330004F508E508540FF51290047B93F50CF5CC
:100143000EE509540FC454F0FFE50854F0C4540FEE
:100153004FF512F51375F06484F511E51275F0642B
:100163008485F00FE50F75F00A84F510E50F75F03F
:100173000A8485F00FE511700A75110AE510700302
:0301830075100AEA
:010186002256
:1004690012043F7F011204A37FCC1203CB7F440205
:0204790003CBB3
:1003A4001204691203F0120123E51375F00AA4AED6
:1003B400F07C00250CF50BEC3EF50AE50D75F00A12
:0703C400A485F014F51522D9
:060462000122000123014C
:10024600E4FDFBFAC291D292C29000D29100C29113
:10025600D29200D29100C291EF24FF929200D291E5
:1002660000C291D292D29100C291EB25E0FB30936D
:10027600034303010DBD08EDE4FDEAC313FA309311
:1002860003430280D29100C2910DBD08EDD291D2F6
:0A02960092D290EBB50201FEAF0614
:0102A000223B
:0300000002009764
:0C009700787FE4F6D8FD7581230200DEBE
:10000300BB010CE58229F582E5833AF583E02250B2
:1000130006E92582F8E622BBFE06E92582F8E222FC
:0D002300E58229F582E5833AF583E4932216
:10003000EF8DF0A4A8F0CF8CF0A428CE8DF0A42EE4
:02004000FE229E
:10004200BC000BBE0029EF8DF084FFADF022E4CCA2
:10005200F875F008EF2FFFEE33FEEC33FCEE9DEC6B
:10006200984005FCEE9DFE0FD5F0E9E4CEFD22EDB1
:10007200F8F5F0EE8420D21CFEADF075F008EF2FFB
:10008200FFED33FD4007985006D5F0F222C398FDEC
:050092000FD5F0EA2289
:1000A300020187E493A3F8E493A34003F68001F2EB
:1000B30008DFF48029E493A3F85407240CC8C3335E
:1000C300C4540F4420C8834004F456800146F6DF2D
:1000D300E4800B0102040810204080900457E47E62
:1000E300019360BCA3FF543F30E509541FFEE49322
:1000F300A360010ECF54C025E060A840B8E493A3E9
:10010300FAE493A3F8E493A3C8C582C8CAC583CA13
:10011300F0A3C8C582C8CAC583CADFE9DEE780BECB
:010468000093
:00000001FF
